:020000040800F2
:1000000028F0002045010008F9FD0008658200087D
:10001000D5F10008B714000869A501080000000028
:10002000000000000000000000000000E161010885
:100030000D29000800000000450E0108D16D0108DF
:100040005F0100085F0100085F0100085F01000810
:100050005F0100085F0100085F0100085F01000800
:100060005F0100085F0100085F0100085F010008F0
:100070005F0100085F0100085F0100085F010008E0
:100080005F0100085F0100085F01000809A3010883
:100090007DA301085F0100085F0100085F010008FF
:1000A0005F0100085F0100085F0100085F010008B0
:1000B000856F010819700108017101085F010008CE
:1000C0005F0100085F0100085F0100085F01000890
:1000D000B160010801A101080DA1010819A10108E1
:1000E000F95700085F0100085F0100085F01000880
:1000F0005F0100085F0100085F0100085F01000860
:100100005F010008094701085F0100085F0100085E
:100110005F0100085F0100087D710108A5710108F9
:100120005F0100085F0100085F0100084F2300081D
:10013000DFF80CD000F01AFC00480047B5040208B4
:1001400028F000200648804706480047FEE7FEE703
:10015000FEE7FEE7FEE7FEE7FEE7FEE7FEE7FEE777
:100160004D6E0108310100082DE9F04100242546BB
:10017000002905DA01240027D0EB070067EB010115
:10018000002B05DA0027D2EB0702012567EB0303FA
:1001900000F02BFA86460E4617469C46AC4204D029
:1001A0000025D0EB050E65EB010624B10020D2EB53
:1001B000000760EB030C704631463A466346BDE8E3
:1001C000F08140EA01039B0703D009E008C9121F30
:1001D00008C0042AFAD203E011F8013B00F8013B01
:1001E000521EF9D27047D2B201E000F8012B491E2D
:1001F000FBD270470022F6E710B513460A460446C4
:100200001946FFF7F0FF204610BD10B5044604E084
:100210000B7800F8013B03B1491C521EF8D220466E
:1002200010BDCAB2401E10F8011F8A4202D0002938
:10023000F9D100207047421C10F8011B0029FBD1A6
:10024000801A704710B5002200E0521C835C8C5C61
:10025000A34201D1002BF8D1D8B2E1B2401A10BDAF
:1002600030B504460020034600E05B1C934203D2F5
:10027000E05CCD5C401BF8D030BD034611F8012B8B
:1002800000F8012B002AF9D11846704730B5054611
:100290000020034600E05B1C934205D2EC5CC85C86
:1002A000201A01D1002CF6D130BD0246C9B200E0BF
:1002B000401C0378002BFBD102E003788B4203D073
:1002C000401E9042F9D20020704730B480EA01020B
:1002D00002F0004530F0004221F0004015D0A0B1FE
:1002E000C0F3C753C2F3C754C2F31601C0F31600DC
:1002F000E41A41F4000140F400027D34914201D33C
:10030000641C00E04900002C02DA30BC0020704779
:100310004FF400000023914201D3891A034340089F
:100320004FEA4101F7D151B1914202D14FF0004162
:1003300005E002D24FF0010101E06FF0010103EB93
:10034000C450284430BC00F091B9420005D0C0F33D
:10035000C7525242914201DC0020704700EBC1506D
:1003600070472DE9FE4F81EA030404F0004421F0B8
:10037000004100944FF0000B23F0004350EA0104C9
:1003800002D052EA030404D10020014603B0BDE8C4
:10039000F08FC3F30A54C1F30A552C44A4F2F3348A
:1003A0000194A0FB0254C1F3130141F48011C3F383
:1003B000130343F4801301FB024400FB034E840A41
:1003C000970A44EA815447EA8357A4FB07680295D9
:1003D0008D0A05FB07854FEA932C04FB0C54270577
:1003E000029D4FEA065847EA1637B5EB08056EEB53
:1003F000070C870E920E47EA811742EA8312A7FB89
:100400000201B6EB0B0164EB00042B0D43EA0C3345
:100410005E1844EB1C50DA465146E7FB0201C5F377
:1004200013044FEA0B3343EA14534FEA0432019C9E
:1004300043EA0603A4F10C040294009CCDE900B445
:1004400000F057F9A2E72DE9F04D81EA030404F02A
:10045000004B21F0004514464FF0000A23F0004104
:1004600050EA050220D054EA01021DD0C5F30A5714
:100470000246C5F31303C1F31300C1F30A5640F457
:10048000801543F48013A7EB0608101BD64608F22C
:10049000FD3873EB050002D308F1010801E0921862
:1004A0005B41B8F1000F03DA00200146BDE8F08D92
:1004B00000204FF48011064684460EE0171B73EBB4
:1004C000050705D3121B63EB050306434CEA010C39
:1004D00049084FEA300092185B4150EA0107EDD11C
:1004E00052EA030012D082EA040083EA05010843BD
:1004F00003D100224FF0004308E0101BAB4102D2B1
:100500000122002302E06FF0010253101AEB0600F3
:100510004CEB085110EB0A0041EB0B01BDE8F04D2C
:1005200000F0DAB8C10F80EAE0700844CA079623E9
:10053000002100F0A4B896230022114600F09FB8D5
:100540000EB540F2334102910021CDE900110A4677
:100550000B4600F0CEF803B000BD70B5C1F30A52EF
:1005600001F000450024C1F3130140F2FF3341F4D0
:1005700080119A4201DA002070BD40F233439A4262
:10058000A2F2334203DC524200F060F800E09040F7
:100590002C43F1D0404270BD00F0004230F00040EA
:1005A0000AD0C10D01F56071C0F3160042EA015195
:1005B000C20840071143704700200146704730B51C
:1005C0000B46014600202022012409E021FA02F511
:1005D0009D4205D303FA02F5491B04FA02F52844AB
:1005E000151EA2F10102F1DC30BD2DE9F05F0546D8
:1005F000002092469B4688460646814640241BE0E2
:10060000284641464746224600F020F853465A46BF
:10061000C01A914110D311461846224600F0B8F98D
:100620002D1A67EB01084F4622460120002100F0F9
:10063000AFF917EB00094E41201EA4F10104DFDCE5
:10064000484631462A464346BDE8F09F202A04DB4F
:10065000203A21FA02F00021704721FA02F3D0403B
:10066000C2F1200291400843194670470029A8BFF3
:100670007047401C490008BF20F00100704710B4CB
:10068000B0FA80FC00FA0CF050EA010404BF10BC80
:10069000704749B1CCF1200421FA04F411FA0CF1AD
:1006A00018BF012121430843A3EB0C01CB1D010618
:1006B000000A002BBEBF002010BC704700EBC350E7
:1006C00010440029A4BF10BC7047401C490008BF5B
:1006D00020F0010010BC704710B5002B08DA401C58
:1006E00041F1000192185B411A4301D120F0010051
:1006F00010BD2DE9F04D92469B4611B1B1FA81F241
:1007000002E0B0FA80F22032904600F041F904464F
:100710000F4640EA0A0041EA0B0153465A46084395
:1007200003D120463946BDE8F08D114653EA010059
:1007300015D0C8F140025046FFF788FF05460E4627
:1007400050465946424600F023F9084301D00120A3
:1007500000E00020054346EAE0762C4337430A9840
:100760004FEA4453A0EB08004FEAD4240A304FF07C
:10077000000244EA47544FEAD72502D5002001463B
:10078000D1E7010510196941DDE908450019694102
:10079000BDE8F04DA0E72DE9FE4F804681EA030059
:1007A000C00F0C46009021F0004123F00045B8EB4B
:1007B0000200A94105D24046214690461C460B4600
:1007C000024623F00040104304D14046214603B0C6
:1007D000BDE8F08F270DC7F30A00C3F30A5102905A
:1007E000401A0190402866DAC3F3130040F4801BDE
:1007F0000098924620B10023D2EB030A63EB0B0B67
:1008000001985946C0F14002504600F0C1F8064632
:100810000D4650465946019A00F0C9F810EB080001
:100820006141002487EA115284EAE7731A433BD0FE
:10083000009A3AB3019A012A4FEA075210DC001BD2
:1008400061EB02014FF0004202EA0752CDE900429B
:10085000001C41F5801132462B46FFF74AFFB6E7F0
:10086000001B61EB0201001C41F5801300185B4185
:100870002018A2F5001747EB030140EAD570B6191E
:100880006D4111E06D084FEA360645EAC0754FEA42
:100890000752001B61EB0201001C41F58011490861
:1008A0004FEA30000019514132462B4603B0BDE8F3
:1008B000F04FFFF711BF0098012240000023D0EB5A
:1008C000020263EBE073009821464FEAE074B8EB54
:1008D000000061EB0401E9E783F000435BE781F08E
:1008E000004158E770B521F0004303430CD0C1F339
:1008F0000A550024D5EB040564EB0403D617AD1AA2
:10090000B34102DB0020014670BD201841EB0251CB
:1009100070BDC1F30A52C1F3130140F2FF3341F439
:1009200080119A4202DA00200146704740F23343B8
:100930009A42A2F2334202DC5242FFF787BE00F035
:1009400027B8000030B5002904DB4FF000444042D6
:1009500064EB0101002B04DB4FF00044524264EBD6
:100960000303994208BF904230BD0000064C074D7A
:1009700006E0E06840F0010394E80700984710346F
:10098000AC42F6D3FFF7D8FBB4CE0608D4CE0608A7
:10099000202A04DB203A00FA02F10020704791403F
:1009A000C2F1200320FA03F3194390407047202A34
:1009B00006DBCB17203A41FA02F043EAE07306E087
:1009C00041FA02F3D040C2F1200291400843194697
:1009D00070470EB5C10F80EAE0700844CA070021D5
:1009E00040F233438DE80E000A460B46FFF781FEC6
:1009F00003B000BD70B501EB020410F8015B15F007
:100A0000070301D110F8013B2A1106D110F8012B80
:100A100003E010F8016B01F8016B5B1EF9D12B07A5
:100A200005D40023521E0FD401F8013BFAE710F859
:100A3000013B02F10202A1EB030303E013F8015BA7
:100A400001F8015B521EF9D5A142D6D3002070BD3A
:100A500050B101280BD002280CD003280DD142F24E
:100A6000280000BF00F02EB84FF40350FAE742F21E
:100A70000200F7E74FF40050F4E7704770B5084DF7
:100A8000082420B12C61BDE870401CF0B1BE1CF000
:100A9000A9FE40F216301CF02DFC6C6170BD000008
:100AA0000010014010B501090007054A0023FFF7B7
:100AB0005BFB0146BDE81040002000F013B80000C9
:100AC00080B2E60E10B504460020FFF7D7FF200ADB
:100AD0001DF024F8E0B21DF021F8BDE8104001201F
:100AE000FFF7CCBF10B5C1F30D02C1F38D3458B17F
:100AF00002F5004290B2FFF7E5FF04F50044A0B212
:100B0000BDE81040FFF7DEBF02F58040FFF7DAFFD7
:100B100004F58040F4E7C1F30B0120B101F5604119
:100B200088B2FFF7CFBF01F54041F9E7002981689E
:100B300002D041F0010101E021F001018160704724
:100B40000029816802D041F4807101E021F48071B4
:100B5000816070470029816802D041F4801101E072
:100B600021F480118160704701460020896849079F
:100B700000D501207047014600208968090700D58B
:100B80000120704710B542680E4B0C791A400B6873
:100B900042EA04221343436083680B4A1340D1E9BD
:100BA000024222434C7943EA44031A438260C26AF8
:100BB000097C22F47002491EC9B242EA0151C162A5
:100BC00010BD0000FFFEF0FFFDF7F1FF70B5072438
:100BD00009290AD9C568A1F10A0606EB4606B44000
:100BE000A543B3401D43C56007E0056901EB41061D
:100BF000B440A543B3401D4305611F23072A09D212
:100C0000446B521E02EB820293409C4391400C4382
:100C1000446370BD0D2A09D2046BD21F02EB82021D
:100C200093409C4391400C43046370BDC46A0D3AE9
:100C300002EB820293409C4391400C43C46270BD1E
:100C4000816841F0080181607047816841F00401CA
:100C500081607047184A174B0128526802F580528C
:100C600010D002280DD1507CF9B1052801D2401CCA
:100C70005074C0B253F8301003EBC000916180880B
:100C8000D0837047107C61B1052801D2401C1074DC
:100C9000C0B253F8301003EBC000516180889083DC
:100CA00070470028F4D0401EF1E70028E1D0401E34
:100CB000DEE70000A0300208C005002070B5ADF5E9
:100CC000006D684604F044FC10F0FF0460D0544D01
:100CD00040F214566878012802D002280CD00FE0A8
:100CE000012C0DD101224FA16846FFF7B9FA002867
:100CF0004ED1314668466CE002214BA004F014FD51
:100D0000062C27D0042C3BD0072C44D0082C3FD1F4
:100D1000082246A16846FFF7A3FA00286ED00822F1
:100D200045A16846FFF79CFA00286DD0082245A12E
:100D30006846FFF795FA00286CD0082244A168465F
:100D4000FFF78EFA002823D104201CF06FFA082147
:100D500042A03EE0062244A16846FFF781FA60B156
:100D6000062243A16846FFF77BFA002810D1022132
:100D70002DA004F0D9FC022009E001206870B8E73A
:100D800004223DA16846FFF76BFA002800D1687085
:100D90000DF5006D70BD072239A16846FFF760FAB6
:100DA000D0B1072239A16846FFF75AFAD0B107221D
:100DB00039A16846FFF754FAD0B1072239A1684635
:100DC000FFF74EFA0028E3D104201CF047FA072170
:100DD00037A004F0A9FCDBE701201CF03FFA072153
:100DE00035A0F6E702201CF039FA072134A0F0E71D
:100DF00003201CF033FA072133A0EAE701201CF09E
:100E000015FA082132A0E4E702201CF00FFA0821AD
:100E100032A0DEE703201CF009FA082132A0D8E74F
:100E2000CC050020410000004F4B00006C65646F52
:100E300066662031000000006C65646F66662032D3
:100E4000000000006C65646F6666203300000000DF
:100E50006C65646F66662034000000006C65643465
:100E6000206F66660000000074787465737400007B
:100E7000727874657374000073746F700000000002
:100E80006C65646F6E203120000000006C65646F3B
:100E90006E203220000000006C65646F6E203320ED
:100EA000000000006C65646F6E20342000000000BC
:100EB0006C656434206F6E006C656431206F6E0069
:100EC0006C656432206F6E006C656433206F6E0059
:100ED0006C656431206F6666000000006C656432EA
:100EE000206F6666000000006C656433206F6666E4
:100EF000000000002DE9FE4F00208DF8000036486C
:100F000001883648B1F5F07FC28834D0344B00BF39
:100F100003EBC2024623D288ADF8022049F69912AB
:100F2000ADF804200122ADF806205022B1FBF2F208
:100F3000D6B22C4A4FF0190B1288283A92FBF3F2E2
:100F4000D7B206FB07F41522B2FBF4F28470521CF0
:100F50004270C6F1010202EB820201EB021130394C
:100F600001EBD171C1F34F010291007870437843D6
:100F700085B200202BE01A4B383BC9E7C8EBC8000C
:100F800000EB80010BEB41001FFA80FA0024DDF832
:100F9000089015E0114800220C3000EB451069461E
:100FA000A0F80290A0F804A00CF0FAFB6D1CADB202
:100FB000162D0FD209F15000641C1FFA80F9E4B21B
:100FC000B442E7D3162D05D208F10100C0B2804625
:100FD000B842D3D3BDE8FE8F840600206400002011
:100FE0008C2C02088206002001221146052000F008
:100FF00049B800002DE9FC411F4C2078002821D081
:10100000A788002F1ED025461C4A2D8994F801C0C0
:101010006D1CAEB291151A48002540F2DC53BCF1AC
:10102000000F11D0BCF1010F0CD12681BE4209D3B3
:10103000E688B6B167897F1CBFB26781B74210D31B
:101040002570A580BDE8FC8126816788BE42F9D362
:10105000CDE9003501231CF05FF925810120607086
:10106000F0E72581657041F28834CDE90034012331
:101070001CF052F9E6E70000A00B0020002C014014
:10108000000801401CB5002815D00B4B58809980F2
:10109000DA8000201881588158700120187041F2C0
:1010A000883140F2DC50054ACDE900010123911559
:1010B00003481CF031F91CBDA00B0020002C01409E
:1010C000000801401CB507490020074A087040F29B
:1010D000DC51CDE900100123911504481CF01CF9E6
:1010E0001CBD0000A00B0020002C014000080140A6
:1010F00010B51F2801D81F2002E0FE2800D3FE20D3
:10110000084C4021207001EB501000F05FF820786F
:1011100000F01F00603000F059F86078BDE8104022
:1011200000F002B8E005002010B50B4C012808D0F3
:1011300002280BD003280ED1132000F047F803201B
:1011400008E0102000F042F8012003E0112000F038
:101150003DF80220607010BDE005002070B500F081
:101160001DF80D4E0446307800EB40004000FFF7BC
:10117000E2F9054640F259106043FFF7DCF92946D1
:10118000FFF7A3F87178022904D1BDE87040C91EA9
:10119000FFF7DBB870BD0000E005002070B51FF060
:1011A000AFF847201FF084F81FF0D0F81FF05CF86C
:1011B00004461FF013F81FF057F805461FF042F8D9
:1011C0001FF0B2F805EB042080B270BD10B50446E4
:1011D0001FF096F846201FF06BF81FF0B7F8204676
:1011E0001FF066F81FF0B2F8BDE810401FF09CB881
:1011F00010B5012011F0DCF9BDE81040002011F01D
:10120000D7B9000008B5024908440090008808BD1D
:10121000006C004008B5024A10440090016008BD0F
:10122000006C004070B504461FF06AF8EE201FF015
:101230003FF81FF08BF820461FF03AF81FF086F8B1
:101240001FF05EF8EF201FF033F81FF07FF81FF05B
:101250000BF804461EF0C2FF1FF006F805461EF00C
:10126000F1FF1FF061F805EB042080B270BD0000B3
:101270002DE9F0412E21F42000F0B0F800F098F8AC
:10128000F620FFF7CFFF484C80463420A17D00EBCD
:101290008110C1B2F42000F0A1F800F089F8F62521
:1012A0001FF02EF8EE201FF003F81FF04FF828462D
:1012B0001EF0FEFF1FF04AF81FF022F8EF201EF08C
:1012C000F7FF1FF043F81EF0CFFF07461EF086FF22
:1012D0001EF0CAFF06461EF081FF1EF0C5FF054640
:1012E0001EF0B0FF1FF020F8380400EB0620A17DAF
:1012F0004319C1F108006289C340A8EB02002289AA
:10130000B4F914505043B4F91220C013D20205446A
:1013100092FBF5F2104400F108021211A261A0F54F
:101320007A60B4F90E5000FB00F25543B4F9026044
:10133000ED15464305EBE625B4F9006005EB86059F
:101340008D40B4F90460121346437013B4F90C6075
:10135000AD1C564300EB2640801C8010E28800F54F
:1013600000404243A3EBA500D20B4CF25033CB40DC
:101370005843B0F1004F03D24000B0FBF2F002E05E
:10138000B0FBF2F040000112494340F6DE32514317
:101390000A140649414302EB214101F6CF6100EBFB
:1013A0002110E061BDE8F081183D002043E3FFFF1C
:1013B0000948807D40B1012808D0022808D00328C0
:1013C00008D11B201AF05EBF0620FBE70920F9E7D1
:1013D0000F20F7E770470000183D002070B50D465C
:1013E00004461EF08DFFEE201EF062FF1EF0AEFFE1
:1013F00020461EF05DFF1EF0A9FF28461EF058FF94
:101400001EF0A4FFBDE870401EF08EBF2DE9F04134
:101410000C460746C1B21D4616465820DDF8188016
:1014200011F070F8390A592011F06CF8E1B25A2025
:1014300011F068F8B8F1000F17D0802040EA1421AD
:101440005B2011F05FF8E9B25C2011F05BF8290A2B
:101450005D2011F057F8F1B25E2011F053F8310A17
:10146000BDE8F0415F2011F04DB8210AE8E70A28F5
:1014700001D2303002E0102802D24130C0B27047B1
:101480000020704710B578B14FF48054012805D082
:1014900002280FD11021012015F028F92146BDE8BE
:1014A0001040022015F0DCB81021BDE810400120EA
:1014B00015F01CB910BDFEE7C1B2000A40EA0120D8
:1014C00070470000094910B588424FF0010101D171
:1014D0004C0601E04FF08064204611F045F82046AC
:1014E000BDE81040002111F03FB80000006400404A
:1014F000F0B5827A012191402D4A136843F001032F
:1015000013602B4B1C331C688C431C60284C284DEB
:10151000077B0C3440352E1DA7B927688F43276001
:101520004788B0F806C047EA0C4790F80AC045F86B
:101530003C700788B0F804C047EA0C4790F80AC02E
:1015400046F83C70077B012F0ED127680F432760B8
:101550000468877A4FEA344445F837404468857A0E
:101560004FEA344446F83540114CC57A241D002D0D
:10157000256806D00D4325600D4C0589143415B13E
:1015800004E08D43F7E725688D4325600589012D2B
:1015900002D125680D432560407B012802D11868DF
:1015A00008431860106820F001001060F0BD0000D2
:1015B00000660040002A426901D00A4300E08A43E5
:1015C0004261704710B50368002223F002030360F4
:1015D000036843F0010303604FF6FF7300E0521C01
:1015E0004468E40701D19A42F9D14268D2073ED05B
:1015F0008A79012A02683CD022F080020260CA790E
:10160000012A026838D022F0400202600A7A012AD8
:10161000026834D022F0200202604A7A012A02686D
:1016200030D022F0100202608A7A012A02682CD09F
:1016300022F008020260CA7A012A026828D022F049
:10164000040202608A78CC78920742EA04620C793C
:1016500042EA04424C79098842EA0452491E0A438C
:10166000C261016821F001010160002114E0002045
:1016700010BD42F08002C1E742F04002C5E742F0EF
:101680002002C9E742F01002CDE742F00802D1E79C
:1016900042F00402D5E7491C4268D20701D09942C2
:1016A000F9D14068C007E2D1012010BD10B500EBB0
:1016B0000113D3F8B04114F004041472D3F8B0410C
:1016C0002BD0E408C2F8044003F5D8731C6804F07A
:1016D000020454725C6804F00F0494725C68240A7B
:1016E000D4749C68D4729C68240A14739C68240C7B
:1016F00054739C68240E9473DC68D473DC68240AE9
:101700001474DC68240C5474DB681B0E937439B1B8
:10171000016941F02001016110BD640D1460D3E73F
:10172000C16841F02001C16010BD00218171C1710B
:10173000017241728172C1728170C17003210171A5
:101740000221417101210180704730B5024600201D
:1017500093685B0108D49068000101D5012003E083
:101760009068C00031D5022002EB0012D2F880311F
:1017700003F00103C2F880310B7A43B3D2F8804101
:101780004D681C434B7A43EAC5031C43C2F88041B1
:101790008B7A02F5C07203F00F038B72536823F04B
:1017A0000F03536053688C7A23435360CB7ACC6821
:1017B00043EA04239360CB7B096943EA0121D160AA
:1017C000116841F00101116030BD042030BDD2F834
:1017D00080314C7A23430C8843EA4453C2F8803169
:1017E000D6E7000070B5614B614C00205988A4F128
:1017F000400202E0155C2554401C0D468842F9D396
:101800005B48626820301F2D4260A268826007D06A
:101810000220FFF737FE00202060607B1A2221E0C3
:10182000E17B282901D02A290AD1D4F81100227D90
:1018300000BA20F0FF0010435860E08A40BA986078
:101840004C4A2068904252D14B4A607B12689042C9
:1018500003D8A27B0AB1102A0DD90220FFF712FE8D
:10186000607B2422052115F017F8BDE870400021A7
:10187000012014F0F3BF252958D01ADC152971D0A6
:101880000DDC08296ED005DCB9B3032936D0042954
:101890002DD163E00A2965D0122928D132E01A3906
:1018A0000A2924D2DFE801F03632235E32232323D3
:1018B000233E8A2956D00EDC552953D006DC282930
:1018C0003CD02A2940D02F2911D143E05A2925D0D4
:1018D00088290CD146E0A82944D004DC8F2941D0C6
:1018E0009E2904D13EE0AA293CD0AF293AD002205B
:1018F000FFF7C8FD607B2022B4E71BE0BDE8704025
:1019000012F0C0BDBDE8704012F0DABCBDE8704016
:1019100012F0C4BDBDE8704012F00CBDBDE87040CF
:1019200012F002BDBDE8704012F076BDBDE8704017
:1019300012F03ABDBDE8704012F0B4BDD3E9011217
:10194000BDE8704012F0FCBCD3E90112BDE8704064
:1019500012F0DEBDBDE8704012F0C0BDBDE87040C1
:1019600012F090BCBDE8704012F0C4BCBC0800206E
:10197000AC6F002055534243FC07002070B506466B
:1019800014460D463A2021F01FF9E8B221F034F94F
:10199000280A21F031F921F011F90CB1002011E0F1
:1019A00018F082FE1D280FD1304600F062F805467F
:1019B0003B2021F009F921F001F92E44002CEFD051
:1019C000208828442080EBE770BD10B50FF0E6FDBD
:1019D00008B100F043F8BDE81040302000F05FB8D7
:1019E000312000F05CB810B5044600F061F82078B2
:1019F0005C2801D02F2803D10021642000F073F867
:101A0000BDE81040322000F04AB870B5054600200D
:101A10000E46012401E0641CE4B2295D5C2913D068
:101A20002F2911D00029F6D100242844FFF7DBFF2D
:101A3000002C08D0B44206D041280AD0142806D081
:101A4000422800D1B32070BD641CE4B2EDE743200E
:101A500070BD2046E1E7FF21FFF7D7BF10B5222078
:101A600021F0B2F821F0ADF8044621F0A7F82046A5
:101A700010BD70B50546272021F0A6F821F0A1F889
:101A80000400264607D021F09CF8641E05F8010BDF
:101A900014F0FF04F7D121F091F8304670BD10B575
:101AA00021F092F821F08AF8BDE8104018F0FCBD52
:101AB00070B505462F2021F087F82C7806E000BF8E
:101AC00015F8014F5C2C0AD02F2C08D0204621F0AD
:101AD00093F8002CF4D1BDE8704021F06FB80020DD
:101AE00021F08AF8F7E770B505460C460D2021F085
:101AF0006BF8284621F080F8E0B221F07DF8C4F3BD
:101B0000072021F079F8C4F3074021F075F8200E82
:101B100021F072F8BDE8704021F050B838B50121CD
:101B2000C02010F02DFD4FF48064ADF8004010206F
:101B30008DF8030003208DF802006946034806F083
:101B4000DFF802481030046038BD0000001C01407E
:101B500070B50A4DFF22134605F5807606E000BFFA
:101B600010F8014B54402A5D5A40335D0C00A1F13E
:101B7000010189B2F4D143EA022070BD1834020891
:101B80002DE9F041174D164C164F4435164E21E005
:101B900047F6FF702860308800F00F00207007EBD8
:101BA0008000016889B20A0406D5016840F68F7288
:101BB000114001600D4807E009060BD5016848F6A1
:101BC0000F72114001600A48217800EB810050F843
:101BD000040C8047286830800004D9D4BDE8F08127
:101BE000B6090020005C00401C090020000900200C
:101BF000E40800202DE9F84F0020ADF80000DFF8E0
:101C000030A14BF6BF7648F28007484D40F68F78FA
:101C1000474C48F60F7BDFF81C910AF1440A2DE08F
:101C2000018811F00F0244490A7030D004EB8200A1
:101C30000168ADF80010BDF8001009040BD53E494D
:101C4000026802EA080202603C4A087802EB80005F
:101C500050F8040C8047BDF8000000060ED5364948
:101C6000087804EB8002106800EA0B00106034482A
:101C7000097800EB810050F8040C8047DAF8001076
:101C80004846A9F800100904CAD4BDE8F88F2168B5
:101C90002980298801F030016980298801F44051A8
:101CA00029802168314081F4005181F020013943BD
:101CB00021600088C006206815D400EA0B0020606F
:101CC00007F028FC26E02988890401D580F400501B
:101CD0006988C90626D46988890601D580F0200064
:101CE00038432060D1E7ADF80000BDF800000005E2
:101CF00006D5206800EA0800206014F0D3FD09E052
:101D0000BDF800000004B9D5206800EA0800206092
:101D10000EF070FC206829883040C904D3D580F4C7
:101D20008050D0E780F01000D5E70000C609002001
:101D3000005C00401C090020B609002000090020BA
:101D4000E408002070B505460C460498191B401B9A
:101D500081FB0001521BD317FEF706FA001970BD74
:101D600010B55B1A029C241A6343101A93FBF0F01F
:101D7000084410BD074901EB80000168490407D5FC
:101D8000016848F68F7211404CF2800211430160E5
:101D900070470000005C0040074901EB80000168CB
:101DA000490607D5016848F68F72114048F2C00213
:101DB0001143016070470000005C004008B54FF41B
:101DC00098730090F922082164200BF083FE08BD6F
:101DD000054901EB8001086848F68F62104048F21F
:101DE0008002104308607047005C004070B53749BE
:101DF00005460024486B10F0450FFBD0410702D583
:101E00000324042003E0C00704D00124204612F07C
:101E100011FC59E012F04EFCA8422BD140F2FF50C9
:101E200012F008FC002012F067FC294908424BD050
:101E3000002801DA1C2070BD410001D5092070BDC9
:101E4000810001D50A2070BDC10001D50B2070BDF5
:101E5000010101D50C2070BD410101D50D2070BDDF
:101E6000C10101D50E2070BD010201D50F2070BD4A
:101E7000410201D5102070BD810201D5112070BD35
:101E8000C10201D5122070BD010301D5132070BD20
:101E9000410301D5142070BD810301D5152070BD0B
:101EA000C10301D5162070BD010401D5172070BDF6
:101EB000410401D5182070BD810401D5192070BDE1
:101EC000000701D51A2070BD204670BD008001407A
:101ED00008E0FFFD10B50B480024416B11F0450FE1
:101EE000FBD0480702D50324042003E0C80705D02F
:101EF0000124204612F09EFB204610BD40F2FF5008
:101F0000F8E700000080014070B50C46194906460C
:101F10000025486B10F0450FFBD0410702D5032484
:101F2000042003E0C00705D00124204612F082FB04
:101F3000204670BD12F0BEFBB04213D140F2FF50FC
:101F400012F078FB002012F0D7FB10F4604F03D0A2
:101F5000810405D5132070BD4FEA1040208007E0B2
:101F6000410401D5102070BD000401D50F2070BDC3
:101F7000284670BD0080014028B1012805D0022804
:101F800005D0002070470348704703487047034856
:101F90007047000000380140004400400048004005
:101FA00028B1012805D0022805D000207047034839
:101FB000704703487047034870470000A024002082
:101FC000C82C0020F034002008B54CF2F803009033
:101FD0004FF6E85232216420FFF7B4FE002800DA01
:101FE000002008BD70B5084D082420B12C61BDE863
:101FF00070401BF0FDBB1BF0F5FB4FF445701BF070
:1020000079F96C6170BD00000010014010B5082422
:1020100028B108480460BDE810401BF0E9BB1BF084
:10202000E1FB4FF445701BF065F90248001D0460A8
:1020300010BD0000100C014070B505000C464FF0BB
:10204000000013D0FFF7E2FFC4F307401BF04CFD84
:10205000C4F307201BF048FDE0B21BF045FD4FF034
:10206000010035B1BDE87040FFF7D0BFFFF7BAFF00
:10207000EAE7BDE87040FFF7B5BF08B54FF6E85393
:1020800000904CF2F80264213220FFF75BFE08BD9D
:1020900008B5044B00904FF6FF7259420020FFF73D
:1020A00051FE08BDA086010070B5084D082420B17E
:1020B0002C61BDE870401BF09BBB1BF093FB4FF401
:1020C00045701BF017F96C6170BD000000100140F5
:1020D00030B1012807D141F4C81000BF00F010B89A
:1020E00041F4C010FAE7704708B5044A00904FF673
:1020F000FF7300215042FFF725FE08BDA0860100B6
:1021000010B504460020FFF7CFFFC4F307401BF0D3
:10211000EBFCC4F307201BF0E7FCE0B21BF0E4FC8F
:10212000BDE810400120FFF7BFBF0000044A0123B3
:102130008340106809B1184300E09843106070476D
:1021400000740040044A93148340106809B1184396
:1021500000E09843106070470074004030B5084CB0
:10216000236840F6FE7282409343D1E900252A435A
:10217000D1E902510D432A4382401A43226030BD07
:10218000007400402DE9F047404D042604466E617E
:1021900014201AF077F82E610F201AF08BF8002621
:1021A000A868400707D50A201AF084F8761CF6B212
:1021B0000A2EF5D368E00A2E66D20026A8684007EA
:1021C00007D40A201AF076F8761CF6B20A2EF5D358
:1021D0005AE00A2E58D20026A868400707D50A20E0
:1021E0001AF068F8761CF6B20A2EF5D34CE00A2EE7
:1021F0004AD20026A84600254FEA05094FEA456065
:102200004FEA10655FF00007D8F80810490707D4B7
:102210000A201AF04FF87F1CFFB20A2FF4D31AE0FD
:102220000A2F18D25FF00007D8F80800400706D53B
:102230000A201AF03FF87F1CFFB20A2FF4D3032FB5
:1022400001D96D1CEDB209F1010000F0FF09B9F1EF
:10225000080FD3D300E0FF25A555761CF6B2052E56
:10226000C9D364201AF026F821786078E3780A1838
:10227000A07803441A442379D2B2934204D1607106
:10228000A1710120BDE8F0870020FBE7002001409C
:1022900008B50121080210F04FF9012140F2E110C8
:1022A00010F06EF94CF23370ADF8000003208DF899
:1022B000020018208DF8030069460D4805F020FD46
:1022C0004FF69870ADF8000069460A4805F018FD11
:1022D0000420ADF800006946074805F011FD4FF4F1
:1022E0008050ADF800006946044805F009FD08BDBE
:1022F0000014014000180140001C01400020014072
:1023000000B597B000200421CDE910010F90149082
:1023100006211590CDE9001012901021CDE902019F
:10232000139004900590069009020790CDE90801EA
:102330000A900B900C900FA80D900E90684603F039
:1023400041FE0121062003F02DFE17B000BD12F062
:1023500019BE0000C10002D5024908607047024959
:1023600048607047040402400000024000290168F0
:1023700002D041F0010102E04FF6FE72114001600F
:102380007047000001684FF6FE72114001600021A5
:10239000016041608160C1603149314A0839904231
:1023A00003D1486840F00F0006E02D4A14329042F5
:1023B00004D1486840F0F00048607047284A28324D
:1023C000904203D1486840F47060F5E7244A3C32FB
:1023D000904203D1486840F47040EDE7204A503203
:1023E000904203D1486840F47020E5E71C4A64320B
:1023F000904203D1486840F47000DDE7184A783213
:10240000904203D1486840F07060D5E7154A111F2B
:10241000904203D1086840F00F0006E0114A1432E0
:10242000904204D1086840F0F000086070470D4AFF
:102430002832904203D1086840F47060F5E7094AF9
:102440003C32904203D1086840F47040EDE7054A01
:1024500050329042EAD1086840F47020E5E700006D
:102460000800024008040240002A026801D00A4322
:1024700000E08A430260704730B5036847F6F072A7
:1024800093430C6A8A682243D1E904452C432243D2
:102490008C692243CC6922434C6A22438C6A2243D2
:1024A0001A430260CA6842600A6882604968C16073
:1024B00030BD00002DE9F04100240E4E25464FF4BA
:1024C000807764087761032019F0F4FE37610320F8
:1024D00019F0F0FEB068C00501D544F080043C203E
:1024E00019F0E8FE6D1CEDB2082DEAD32046BDE8D8
:1024F000F08100000020014070B5054600F02EF884
:1025000000280DD0332000F069F80024FFF7D2FF37
:102510002855641CE4B2082CF8D300F01FF8012001
:1025200070BD10B500F01AF8002815D0CC2000F0CE
:1025300055F8442000F052F800F010F8CC2000F0DC
:102540004DF8BE2000F04AF8FFF7B4FF0446FFF74D
:10255000B1FF44EA002000B210BD00002DE9F041B7
:10256000012080F3108800241B4D07024FF40278ED
:102570006F61404619F09EFE2F610F2019F09AFE00
:102580000026A868C00507D50A2019F093FE761C1E
:10259000B6B20A2EF5D30FE00A2E0DD20026A86897
:1025A000C00507D40A2019F085FE761CB6B21E2E8F
:1025B000F5D301E01E2E03D3641C14F0FF04D7D022
:1025C000002080F31088052019F074FE14B100205B
:1025D000BDE8F0810120FBE7002001402DE9F0413A
:1025E0000D4E074600244FF480757561022019F0E6
:1025F00061FEF80701D0356100E075613C2019F0FB
:1026000059FE3561022019F055FE641C7F08E4B2C2
:10261000082CEAD3BDE8F081002001402DE9F04705
:10262000DFF89480254F4FF03009D8F8001001F101
:102630001005088A0E7A08B9042E04D0AC88A0428E
:1026400015D8042614E01E480178012903D0072676
:10265000102038802BE01B4A002112681A4B92B2DE
:1026600003EB42025160A7F8009001701FE00226C0
:10267000844200D90446A968204688478246002043
:1026800005F012FD01462246504617F06FFF214625
:10269000002014F01DF82888001B2880688820443A
:1026A0006880A7F8009009494FF440500880D8F896
:1026B00000000672BDE8F087B8090020C8090020B4
:1026C000B2090020505C004000600040C6090020B4
:1026D0002DE9F047224EDFF88C803027356835F839
:1026E000100FA968A9B100B3AC88844200D9044690
:1026F0002046884781462888001B28806888204417
:102700006880002005F0B0FC0146224648460DF0E6
:1027100095FF288848B114494FF4405008800021A3
:10272000084613F0D5FFA8F800702888A9888842C9
:1027300001D3032001E020B1052031680872BDE813
:10274000F087316806200872084900200968084AA5
:1027500089B202EB41014860A8F80070EFE7000081
:10276000B8090020C8090020C6090020505C0040BC
:1027700000600040F8B55C4C5C4D092620680027DD
:1027800029684278062A05D0AAB1082A4BD00A2A1D
:102790004ED069E00278520666D18078012804D0D4
:1027A000022804D0032804D05EE0C96954E0096A15
:1027B00052E0496A50E04288A2BBC288022A53D143
:1027C00002797ABB0278530601D1838833B102F0D3
:1027D0007F02012A04D0022A0CD045E044493BE0A4
:1027E0008A69407900219047E0B92068807A002802
:1027F000F4D139E0417901F00F0001F070020B06CD
:102800003C4951F8201003D5C1F30111090102E040
:10281000C1F301310903384B1B78834224D90AB92B
:102820000029DBD120E0007840061DD1334913E0B8
:10283000027802F07F02012A16D1827AA2B1428880
:1028400092B9027982B9C288012A0DD18A69407988
:102850000021904740B92A4931B1206847828161FF
:1028600000208847002006E0296820680969407830
:102870008847032807D021680A8AA2F57F43FF3BD7
:1028800004D10E72F8BD20680672F8BD022809D086
:1028900042B10878000621D5C8880090824205D947
:1028A000088213E04FF008000872F8BD0ED22868C5
:1028B000144B90F82C00824201D21F7006E0B2FB4C
:1028C000F0F400FB142008B901201870286890F873
:1028D0002C008882BDE8F840FFF7A0BE03200872F4
:1028E000094900030880F8BDB8090020BC09002090
:1028F000656A0108005C00401E090020F9690108B2
:102900003D6A0108B2090020C60900207047000096
:102910000848416801F58051486808B1401E486088
:10292000054A52F82000054AC860B2FBF0F0886002
:1029300013F000BFC00500206430020840787D011C
:10294000F0B52B4CB9B0206890F84802002846D06A
:10295000012846D0022846D0032846D025A101A848
:10296000FDF78BFC206801ADC0F8F05100F5F07068
:102970000AF0C5FF2068214990F8490200EB4002A7
:1029800051F8220001EB8201D1E9016721A905F08C
:1029900067F929A9304605F063F931A9384605F0F1
:1029A0005FF931A8009029AB21AA15A101A818F060
:1029B00055FC2068C0F8405200F50C700AF09FFFEB
:1029C000206801A9D0F8440205F04AF92068C0F84F
:1029D000185200F502700AF092FF39B0F0BD0CA158
:1029E000BDE70DA1BBE70EA1B9E70FA1B7E7000056
:1029F000D805002078787878780000001031020837
:102A000025732D25732C20B2BDBDF8202573000041
:102A1000B9D8B1D500000000C8FDBDC7B2A80000FC
:102A2000D5FDCFD2B2A80000B7BDB2A8000000000B
:102A30002DE9F04190B001208DF8340046F20C30C1
:102A4000ADF836004EF65B70ADF838000021ADF8F9
:102A50003A104FF00A08192500904FF48C73EA22BF
:102A6000294640460BF036F8164E17A101A8B6F9D4
:102A7000022018F0F3FB01A801F0AAFCB7780D2F93
:102A800002D90D27002401E0002416E07068621CC2
:102A900000EB841311A1D3F8C001009003F5CE73AD
:102AA00001A818F0DBFB0DAB01AA294640460AF04D
:102AB00037FC1135641CADB2E4B2BC42E6D310B0B1
:102AC000BDE8F081CC050020B9B2C9A8C3E8B5BD06
:102AD0002564B8F6576946692041500025303264B4
:102AE0003D25732C20256464426D000010B52A4CEE
:102AF000206800F5AA700AF01FFD20687C300AF0FB
:102B00001BFD206894300AF017FD2068AC300AF0F5
:102B100013FD2068C4300AF00FFD2068DC300AF095
:102B20000BFD2068F4300AF007FD2068DC300AF065
:102B300003FD2068F4300AF0FFFC206800F5867081
:102B40000AF0FAFC206800F592700AF0F5FC2068A3
:102B500000F59E700AF0F0FC206800F5B6700AF0EF
:102B6000EBFC206800F5C2700AF0E6FC206800F576
:102B7000CE700AF0E1FC206800F5DA700AF0DCFCA7
:102B8000206800F5E6700AF0D7FC2068BDE8104028
:102B900000F5F2700AF0D0BC3403002070B5A2B08A
:102BA00001208DF880001F20ADF882004EF65B708A
:102BB000ADF88400144E0020ADF88600B0690A24F8
:102BC00090FBF4F204FB1203972510A1684618F05D
:102BD00045FB20AB6A46294620460AF0A1FBF16975
:102BE0004FF47A7091FBF0F200FB1213A8250DA1AF
:102BF000684618F033FB20AB6A46294620460AF0A7
:102C00008FFB22B070BD0000183D0020BBB7BEB3E3
:102C1000CEC2B6C820203D202533642E2564A1E60F
:102C200000000000B4F3C6F8D1B9C1A620203D20B1
:102C30002533642E253033644B50610038B51F486E
:102C4000214A204903881E481288B3F5F07FC088C6
:102C500001EBC00407D1A1F13805B2F5887F0BD094
:102C6000B2F5A07F12D051F83010174800882838EC
:102C700001B382B2009111E055F83010E82209B199
:102C800000910BE005EBC00080880DE055F8305056
:102C90004FF48C723DB151F83000009014210020A7
:102CA0000AF032FC38BDA0880090142100200AF000
:102CB00011FF38BDA18882B20091F6E7840600209A
:102CC000640000208C2C0208820600203EB5012002
:102CD0008DF804004FF6FF70ADF8060040F24D206D
:102CE0000C4CADF808000021ADF80A1000902088C7
:102CF0001422143881B20848038800200AF0EAFE42
:102D0000208801AB123881B204A205200AF008FB2A
:102D10003EBD000082060020840600204B333AD0DE
:102D2000A3D7BC204B313AB1B3BEB0204F4B3ACF02
:102D3000D4CABEB7BDCFF20000B589B001228DF86C
:102D4000182049F69912ADF81C200022ADF81A207F
:102D5000ADF81E2006AA0392002816D10C48008860
:102D60004038ADF802000B4800888DF81410243864
:102D7000ADF804002020ADF806003C20ADF80800B6
:102D800005A0049068460AF0D7FB09B000BD00001A
:102D90008406002082060020B7B5BBD800000000E2
:102DA0002DE9F84F3E4C1F2000902388072219463A
:102DB00001200AF0D3FD606800F58050408D20802E
:102DC000142801D2142002E0DC2801D9DC20208064
:102DD0004FF6E070009023880522194601200AF082
:102DE000BDFD606841F23007014600F5005041F238
:102DF0009C2C90F8902341F2085941F2747812B358
:102E0000002280F89023CE1901EB0C050020A34688
:102E10004FF4967A01F5805300F10A0226F810204B
:102E200001EB40025C695288C2F5FD6202EB82024E
:102E3000520012B292FBF4F25C8D224412B2DC2AF0
:102E400009DDDC220AE0012280F8902301EB09066B
:102E500001EB0805DAE7142A00DA142225F810201D
:102E6000401C00B25045D7DBDBF8040042F2903141
:102E70004FF01F03095C524671B100EB0C0138445E
:102E80000AF084FD01B0524629463046BDE8F04FB5
:102E90004FF6E0730AF07ABD00EB08014844EFE713
:102EA000C00500202DE9F84F3B4D1F2000906B8896
:102EB0000522194601200AF051FD686800F580508E
:102EC000808D6880142801D2142002E0DC2801D90A
:102ED000DC2068804FF4FC6BCDF800B06B880522D5
:102EE000194601200AF03AFD6C6842F2903041F632
:102EF0004C41005D41F6B86C42F2241810B304EB6B
:102F00000C0604EB080723460020AA464FF49679E6
:102F100004F5805400F10A0226F8102003EB400269
:102F2000A569B2F80228C2F5FD6202EB82025200E6
:102F300012B292FBF5F2A58D2A4412B2DC2A05DD0D
:102F4000DC2206E004F5CF566718DCE7142A00DA25
:102F5000142227F81020401C00B24845DADBDAF8CA
:102F6000040042F290324FF01F03125C002A4A46DE
:102F70000DD0014400F5CF500AF008FD01B05B46CA
:102F80004A4639463046BDE8F04F0AF0FFBC00EB38
:102F900008016044F0E70000C00500202DE9F0437F
:102FA0008BB001208DF820001F25ADF824500020A3
:102FB0004FF6FF79ADF82600ADF8229008AB5AA283
:102FC00002210A200AF0ACF9594C606800F58050E3
:102FD00090F82800012810D056A16846FDF74DF959
:102FE00060684FF47A7600F580506F46828BB2426B
:102FF00005D3B2FBF6F251A102E052A1EDE753A1D5
:10300000F81D18F02BF960684FF61F0800F5805086
:1030100090F82E104FF6E0700129ADF8240020D072
:10302000ADF8225008AB6A46E0210A200AF078F990
:103030004FF47840ADF82200606800F5805090F8B9
:103040002900012810D043A16846FDF716F96068F1
:1030500000F58050C28BB24208D3B2FBF6F237A122
:1030600005E0ADF82280DDE73CA1EDE737A1F81DD2
:1030700018F0F4F8606800F5805090F82E104FF4C6
:10308000FC600229ADF8240014D0ADF8225008AB42
:103090006A46E02178200AF043F9ADF82290ADF8B5
:1030A000245060684F4600F58050C268B24204D296
:1030B0002CA10CE0ADF82280E9E72D48824203D232
:1030C000B2FBF6F22BA102E0B2FBF0F22CA16846B3
:1030D00018F0C4F808AB6A46E021E6200AF020F9AF
:1030E000ADF82270ADF82450606808AB00F5805050
:1030F00090F82F00012815D024A20221F5200AF013
:103100000FF9606824A100F580508268684618F0C5
:10311000A5F808AB6A4602214B200AF001F90BB072
:10312000BDE8F08320A2E8E756302E36000000000C
:10313000C0050020434831204143200025642E3043
:1031400030560000434831204443200025646D562A
:103150000000000043483220414320004348322011
:103160004443200054696D65202533647573000065
:1031700040420F0054696D65202533646D73000073
:1031800054696D652025336473200000B5F7BDDAFE
:10319000B7F9B6C800000000B2C9D1F9C6B5C2CAB5
:1031A0003A253764487A0000B5F7BDDACEBBD6C3FE
:1031B00000000000F0B5A5B0EB27D02622A8FEF74E
:1031C000E1FF01240021164D4EF65B7201288DF8B7
:1031D000804015D04FF47840ADF88420ADF88200DF
:1031E0000C46ADF886100FA1684618F037F820ABF2
:1031F0006A46314638460AF093F82C7025B0F0BD87
:10320000ADF884201F20ADF88200ADF886109DF83F
:103210008D309DF88E2008A1684618F01FF8E6E76B
:1032200030030020CEB4B7A2CFD644485431312069
:103230002020202020200000CAAAB6C8202564250E
:10324000252CCEC2B6C8202564A1E620202020204F
:10325000202000002DE9F04F3948A7B00078012860
:103260006AD00A2000904FF0D00924A8FFF744F953
:10327000002501264EF65B784FF01F0A8DF8886016
:10328000D0B1ADF88AA000BFADF88C80ADF88E50FB
:103290002CA102A817F0E2FF00240DF1900B02AF61
:1032A00002A8FCF7C8FF38441BF8042027A117F038
:1032B000D5FF032C05D00BE04FF47840ADF88A0021
:1032C000E2E702A8FCF7B7FF38441FA117F0C6FFDA
:1032D000641CE4B2082CE3D322AB02AA494600984E
:1032E0000AF01EF8FFF71DF90446FDF71BF96FF011
:1032F0000301FDF72AF8FDF74FF9CDE90001A2B26D
:1033000014A102A817F0AAFF0A2409F111078DF8E9
:103310008860ADF88C80ADF88AA0ADF88E5022ABF5
:1033200002AA3946204609F0FBFF07F11A0122AB39
:103330000FA2204609F0F4FF27B0BDE8F08F00008F
:10334000300300206964203D200000002530325801
:1033500000000000726567203D2030782530345829
:10336000202D3E20252D342E303466A1E62000008D
:1033700044533138423230BACD4448543131B2BB73
:10338000C4DCCDACCAB1BDD3C8EBBFAAB7A2B0E50F
:103390000000000010B500F0BDFDFFF7FFFDFFF7D6
:1033A000FFFCBDE81040FFF77DBD00003EB50D4CB1
:1033B0002068B0F82C02FEF707FE2168C1F8300241
:1033C00042F2107190FBF1F201FB120306A1684674
:1033D00017F044FF2068C0F800D200F5F8700AF03A
:1033E0008EFA3EBDB805002025642E253034645683
:1033F000000000003EB5114C2068B0F82C02FEF72A
:1034000047FE21680028C1F8300201DB024600E0D7
:10341000424242F2107192FBF1F301FB132390FB45
:10342000F1F207A1684617F019FF2068C0F800D232
:1034300000F5F8700AF063FA3EBD0000BC050020FC
:1034400025642E25303464560000000010B54EF679
:103450005B7009F055FF354C206820300AF077F991
:10346000206800F5DA700AF04AFA206800F5E47086
:103470000AF045FA206800F5EE700AF040FA20687C
:1034800000F5F8700AF03BFA20684C300AF054F866
:10349000206864300AF050F820687C300AF04CF85C
:1034A000206894300AF048F82068AC300AF044F8FC
:1034B0002068C4300AF040F82068AC300AF03CF8CC
:1034C0002068C4300AF038F82068DC300AF034F89C
:1034D0002068F4300AF030F8206800F586700AF0B1
:1034E0002BF8206800F592700AF026F8206800F5A5
:1034F0009E700AF021F8206800F5AA700AF01CF806
:10350000206800F5B6700AF017F8206800F5C27060
:103510000AF012F8206800F5CE700AF00DF8206865
:10352000BDE8104034300AF007B80000B8050020AC
:1035300010B54EF65B7009F0E3FE354C2068203084
:103540000AF005F9206800F5DA700AF0D8F9206869
:1035500000F5E4700AF0D3F9206800F5EE700AF087
:10356000CEF9206800F5F8700AF0C9F920684C30EF
:1035700009F0E2FF2068643009F0DEFF20687C304B
:1035800009F0DAFF2068943009F0D6FF2068AC30EB
:1035900009F0D2FF2068C43009F0CEFF2068AC30BB
:1035A00009F0CAFF2068C43009F0C6FF2068DC308B
:1035B00009F0C2FF2068F43009F0BEFF206800F572
:1035C000867009F0B9FF206800F5927009F0B4FF29
:1035D000206800F59E7009F0AFFF206800F5AA7022
:1035E00009F0AAFF206800F5B67009F0A5FF206871
:1035F00000F5C27009F0A0FF206800F5CE7009F058
:103600009BFF2068BDE81040343009F095BF0000F2
:10361000BC05002010B54EF65B7009F071FE3C4C05
:10362000206820300AF093F8206800F5E6700AF070
:1036300066F9206800F5F0700AF061F9206800F57D
:10364000FA700AF05CF9206800F502700AF057F988
:10365000206800F507700AF052F9206800F50C7038
:103660000AF04DF920684C3009F066FF206864309C
:1036700009F062FF20687C3009F05EFF206894301A
:1036800009F05AFF2068AC3009F056FF2068C430BA
:1036900009F052FF2068AC3009F04EFF2068C430BA
:1036A00009F04AFF2068DC3009F046FF2068F4305A
:1036B00009F042FF206800F5867009F03DFF2068A0
:1036C00000F5927009F038FF206800F59E7009F04F
:1036D00033FF206800F5AA7009F02EFF206800F57E
:1036E000B67009F029FF206800F5C27009F024FFC8
:1036F000206800F5CE7009F01FFF206800F5DA7031
:1037000009F01AFF2068BDE81040343009F014BFFA
:10371000D805002010B54EF65B7009F0F1FD0F4C96
:10372000206820300AF013F8206834300AF0E7F8F7
:1037300020685C300AF0E3F8206884300AF0DFF893
:10374000206848300AF0DBF8206870300AF0D7F8BB
:103750002068BDE81040983009F0EEBEB0050020AA
:1037600010B54EF65B7009F0CBFD244C206820307C
:1037700009F0EDFF206834300AF0C1F820685C30B1
:103780000AF0BDF8206884300AF0B9F820684830A3
:103790000AF0B5F8206870300AF0B1F82068983067
:1037A0000AF0ADF82068C43009F0C6FE2068DC30AD
:1037B00009F0C2FE2068F43009F0BEFE206800F572
:1037C000867009F0B9FE206800F5927009F0B4FE29
:1037D000206800F59E7009F0AFFE206800F5AA7021
:1037E0000AF08DF8206800F5B4700AF088F82068B7
:1037F000BDE81040AC3009F09FBE0000DC050020A1
:1038000010B53E4C90B02068283009F0A0FF206829
:103810003C300AF074F8206864300AF070F82068D0
:103820008C300AF06CF82068B4300AF068F8206830
:10383000DC300AF064F8206800F5CE7009F07CFEF8
:10384000206800F5927009F077FE206800F59E7000
:1038500009F072FE206800F5AA7009F06DFE20687C
:1038600000F5B67009F068FE206800F5C27009F036
:1038700063FE2068F03009F02FFF206850300AF016
:103880003EF8206890F8D41100292BD001292BD0C4
:1038900002292BD003292BD005292BD018A100BF3A
:1038A000C0F8881078300AF02AF8206890F8D5110E
:1038B000002921D018A100BFC0F8B010A0300AF034
:1038C0001EF820681AA1B0F9D83190F8D6216846C0
:1038D00017F0C4FC2068C0F8D8D0C8300AF00FF840
:1038E00010B010BD17A1DBE71CA1D9E721A1D7E7D4
:1038F00026A1D5E72BA1D3E730A1DDE74C000020BE
:1039000078787820202020202020202020202020AF
:103910002020202000000000B5DA32CDA8B5C0205C
:103920004558544D49432C204558544541520000B8
:10393000456172203D2025642C204D6963203D2087
:1039400025640000C3BBD3D0D7A2B2E12C20D2D1D2
:10395000CDA3D6B9CBD1D1B000000000D2D1D7A22F
:10396000B2E1B5BDB1BEB5D8CDF8C2E72020202068
:1039700020200000D5FDD4DACBD1D1B0CDF8C2E7FC
:10398000D4CBD3AAC9CC202000000000D7A2B2E13A
:10399000B1BBBEDCBEF8202020202020202020202B
:1039A00000000000D2D1D7A2B2E1B5BDC2FED3CE95
:1039B000CDF8C2E72020202020000000B5DA31CD6C
:1039C000A8B5C020494E544D49432C20494E54457A
:1039D000415200007CB5394C3C4DE178A078CDE9EE
:1039E000000128686378227835A1D43017F036FCBE
:1039F000E179A079CDE9000128686379227930A1C5
:103A000000F5847017F02AFCE17AA07ACDE9000174
:103A10002868637A227A2AA100F59E7017F01EFCAE
:103A2000E17BA07BCDE900012868637B227B24A198
:103A300000F5B87017F012FCE17CA07CCDE9000124
:103A40002868637C227C1EA100F5D27017F006FC6A
:103A5000E17DA07DCDE900012868637D227D18A16C
:103A600000F5EC7017F0FAFB2868483009F047FFC2
:103A700028685C3009F043FF2868703009F03FFF88
:103A80002868C03009F028FE2868F43009F024FEC8
:103A9000286800F5947009F01FFE286800F5FC7096
:103AA00009F04AFD286800F50A7009F045FD28680C
:103AB000BDE87C40203009F04ABE00000C0A00201E
:103AC00025642E25642E25642E25640050000020D8
:103AD00010B54EF65B7009F013FC154C20682030D1
:103AE00009F035FE2068343009F009FF20685C30A9
:103AF00009F005FF2068843009F001FF2068AC3030
:103B000009F0FDFE2068483009F0F9FE20687030A9
:103B100009F0F5FE2068983009F0F1FE2068C03009
:103B200009F0EDFE2068BDE81040D43009F004BD76
:103B3000AC05002010B54EF65B7009F0E1FB374C88
:103B40002068203009F003FE206800F5E67009F0D7
:103B5000D6FE206800F5F07009F0D1FE206800F56F
:103B6000FA7009F0CCFE206800F5027009F0C7FE7B
:103B700020684C3009F0E0FC2068643009F0DCFC7F
:103B800020687C3009F0D8FC2068943009F0D4FC1F
:103B90002068AC3009F0D0FC2068C43009F0CCFCBF
:103BA0002068AC3009F0C8FC2068C43009F0C4FCBF
:103BB0002068DC3009F0C0FC2068F43009F0BCFC5F
:103BC000206800F5867009F0B7FC206800F5927057
:103BD00009F0B2FC206800F59E7009F0ADFC206889
:103BE00000F5AA7009F0A8FC206800F5B67009F08D
:103BF000A3FC206800F5C27009F09EFC206800F567
:103C0000CE7009F099FC206800F5DA7009F094FC98
:103C10002068BDE81040343009F08EBCD405002087
:103C200010B54EF65B7009F06BFB154C2068203028
:103C300009F08DFD2068343009F061FE20685C30A9
:103C400009F05DFE2068843009F059FE2068AC3030
:103C500009F055FE2068483009F051FE20687030A8
:103C600009F04DFE2068983009F049FE2068C03008
:103C700009F045FE2068BDE81040D43009F05CBC76
:103C80007805002010B5064C2068643009F0B2FEBB
:103C9000FEF72CFF2068BDE81040303009F01CBD55
:103CA0003403002070B54EF65B7009F029FB3C4CE4
:103CB0002068203009F04BFD2068343009F047FDC2
:103CC00020685C3009F01BFE2068843009F017FE84
:103CD0002068AC3009F013FE2068703009F00FFE48
:103CE0002068983009F00BFE2068C03009F007FE0C
:103CF0002068EC3009F020FC206800F5827009F0A3
:103D00001BFC206800F58E7009F016FC206800F599
:103D10009A7009F011FC206800F5A67009F00CFCFF
:103D2000206800F5B27009F007FC0025216805EB5A
:103D3000450001EBC00000F5BE7009F0FDFB6D1CF5
:103D4000EDB2082DF2D32068483009F000FD20685C
:103D500000F50F7009F0D3FD206800F5147009F02C
:103D6000CEFD206800F5197009F0B6FC206800F55A
:103D7000267009F0B1FC206800F5337009F0DCFB17
:103D8000206800F5397009F0BAFD206800F53E7032
:103D900009F0B5FD2068BDE87040D43009F0CCBB17
:103DA000B405002010B54EF65B7009F0A9FA154C69
:103DB0002068203009F0CBFC2068343009F09FFDEA
:103DC00020685C3009F09BFD2068843009F097FD85
:103DD0002068AC3009F093FD2068483009F08FFD71
:103DE0002068703009F08BFD2068983009F087FD5D
:103DF0002068C03009F083FD2068BDE81040D43051
:103E000009F09ABB8005002010B54EF65B7009F0F2
:103E100077FA254C2068203009F099FC206834306E
:103E200009F095FC2068483009F069FD2068703081
:103E300009F065FD2068983009F061FD20685C306C
:103E400009F05DFD2068843009F059FD2068AC3030
:103E500009F055FD2068E83009F06EFB206800F598
:103E6000807009F069FB206800F58C7009F064FB34
:103E7000206800F5987009F05FFB206800F5A470D9
:103E800009F05AFB206800F5B07009F055FB206876
:103E900000F5BC7009F050FB2068BDE8104000F54B
:103EA000C87009F049BB00007C05002010B5184C13
:103EB0006068283009F04BFC60683C3009F01FFD59
:103EC0006068503009F01BFD606800F5C27009F0B1
:103ED00033FB606800F5927009F02EFB606800F516
:103EE0009E7009F029FB606800F5AA7009F024FBB8
:103EF000606800F5B67009F01FFB6068F03009F0EB
:103F0000EBFB6068BDE81040503009F0F8BC0000E1
:103F1000CC050020F8B54FF6FF764FF49773CA2210
:103F200013210920009609F04DFD002505EBC50081
:103F3000002400EB05170A3704EB8400143081B22B
:103F4000B8B2324609F028FF641CA4B2292CF3D37E
:103F50006D1CADB20D2DE9D3002505EBC500002485
:103F600000EB0517143704EB84000A30B9B280B2B5
:103F7000324609F011FF641CA4B23D2CF3D36D1C32
:103F8000ADB2092DE9D3002404EB84051435A9B2A0
:103F900032469F2009F000FFA9B23246A12009F065
:103FA000FBFE641CA4B2292CEED3002404EB840590
:103FB0000A35A8B23246772109F0EEFEA8B23246A1
:103FC000792109F0E9FE641CA4B23D2CEED3F8BDC2
:103FD0002DE9F047A4B001208DF888001F20ADF82E
:103FE0008A004EF65B70ADF88C000025ADF88E505F
:103FF0004FF0CD0A1A244BA102A817F02FF946F270
:104000000C37ADF88A7022AB02AA2146504609F05F
:1040100087F94B4C4FF02B09B4F90C00B4F906307A
:10402000C11ACDE90001B4F9002046A102A817F099
:1040300015F9B4F90C00B4F906104FF4FA78401AE7
:104040004FF47846404502DAADF88A6001E0ADF8F9
:104050008A5022AB02AA4946504609F061F9B4F9E8
:104060000E00B4F908304FF03C09C11ACDE9000147
:10407000B4F9022038A102A817F0F0F8B4F90E0044
:10408000B4F90810401A404502DAADF88A6001E040
:10409000ADF88A5022AB02AA4946504609F040F9D1
:1040A000B4F91000B4F90A304FF04D09C11ACDE946
:1040B0000001B4F904202DA102A817F0CFF8B4F93B
:1040C0001000B4F90A10401A404502DAADF88A60CF
:1040D00001E0ADF88A5022AB02AA4946504609F0E9
:1040E0001FF9ADF88A706125237DE27C24A102A826
:1040F00017F0B4F822AB02AA2946504609F010F98D
:104100000F4B7225A27D173325A102A817F0A6F840
:1041100022AB02AA2946504609F002F924B0BDE8B4
:10412000F0870000202020B5B1C7B0207C20D7EE5A
:10413000D0A12C20D7EEB4F32CB7B6CEA700000048
:10414000CE0B002058203D2535647C2535642C2578
:1041500035642C253564000059203D2535647C25C7
:1041600035642C2535642C25356400005A203D2506
:1041700035647C2535642C2535642C253564000098
:104180004346475F41203D203078253032582C434C
:1041900046475F42203D20307825303258000000ED
:1041A0004D6F646520203D203078253032642C49E5
:1041B00044203D20257300001CB501208DF800002F
:1041C0001F20ADF804004FF6FF70ADF80200002488
:1041D000ADF806401F2009F093F86B4622A2214655
:1041E000142009F09DF84FF6E070ADF8020012219E
:1041F0006B4628A21E2009F093F836216B462FA2A9
:104200001E2009F08DF848216B462FA2322009F0BC
:1042100087F85A216B4635A2322009F081F86C21CB
:104220006B463AA2322009F07BF87E216B463EA213
:10423000322009F075F890216B4645A2322009F032
:104240006FF8A2216B464CA2322009F069F8B42124
:104250006B464FA2322009F063F8C6216B4652A28A
:10426000322009F05DF81CBDB0B2B8BBC0B35354E6
:104270004D3332463130335A452D454BBFAAB7A294
:10428000B0E520207777772E61726D666C792E63AA
:104290006F6D000051513A3132393537343436338D
:1042A000302020202020456D61696C3A61726D6676
:1042B0006C794071712E636F6D000000B2D9D7F731
:1042C000CCE1CABE3A00000054414D504552BCFCFE
:1042D000203D20C7D0BBBBCDA8B5C0BDB9B5E3A1BB
:1042E000A3434831BBF243483200000057414B45DD
:1042F0005550BCFC203D20CFD4CABEB0EFD6FABB8F
:10430000F2CDCBB3F6B0EFD6FA00000055534552CC
:104310002020BCFC203D20D4DDCDA3BBF2CAB5CA11
:10432000B1D4CBD0D0000000D2A1B8CBC9CFBCFC57
:10433000203D20B7C5B4F3B2A8D0CEB4B9D6B1B73A
:10434000F9B6C8BBF2CFF2C9CFD2C6B6AF000000F3
:10435000D2A1B8CBCFC2BCFC203D20CBF5D0A1B2BE
:10436000A8D0CEB4B9D6B1B7F9B6C8BBF2CFF2CFA8
:10437000C2D2C6B6AF000000D2A1B8CBD7F3BCFC06
:10438000203D20CBAEC6BDD5B9BFEDB2A8D0CE0082
:10439000D2A1B8CBD3D2BCFC203D20CBAEC6BDCB86
:1043A000F5D0A1B2A8D0CE00D2A1B8CB4F4BBCFC67
:1043B000203D20C7D0BBBBD2A1B8CBB5F7BDDAC476
:1043C000A3CABDA1A3B7F9B6C8BBF2CEBBD6C30082
:1043D00003494968C86401F13C0009F090BA000043
:1043E000CC0500202DE9F0434EF65B7487B02046E3
:1043F00008F086FF01208DF814000020ADF8184069
:10440000ADF81A00ADF8160005A80390082430A0F6
:104410000526ADF804407825BE270490ADF802606B
:10442000ADF80650ADF80870684609F090F9C8205C
:10443000ADF80200FA20ADF8080029A0ADF804405C
:104440000490ADF80650684609F081F94FF08508F0
:1044500025A0ADF804803424DC250490ADF802607A
:10446000ADF80640ADF80850684609F070F923A091
:104470004FF0E609ADF804800490ADF80290ADF875
:104480000640ADF80850684609F061F91FA0ADF884
:1044900004700490ADF80260ADF80640ADF8085025
:1044A000684609F054F91EA0ADF804700490ADF808
:1044B0000290ADF80640ADF80850684609F047F99B
:1044C00000210846FEF738FC07B0BDE8F083000085
:1044D0004D50553630353020CDD3C2DDD2C7000027
:1044E000B4C5C1A6BCC60000424D5031383020C60C
:1044F000F8D1B9BCC6BACDCEC2B6C8004248313731
:10450000353020B9E2D5D5B6C80000004453313863
:1045100042323020CEC2B6C8B4ABB8D0C6F7000025
:10452000444854313120CEC2CAAAB6C8B4ABB8D0C0
:10453000C6F7000030B58DB001208DF814004FF49F
:104540007840ADF8160049F69910ADF818007320C0
:104550000024ADF80200ADF81A406220ADF8040066
:104560006420ADF806004FF48470ADF808000DA08B
:1045700005AD04900395684609F03CFA7820ADF843
:104580001E008820ADF8200008A00B900A95ADF819
:10459000264007A809F0B3F94FF4FA6017F072FE4D
:1045A0000DB030BD5761726E696E6700CAE4C8EB2A
:1045B000CEDED0A721000000FEB50D46064602461D
:1045C00011A1684616F04AFE104C2068C0F880D051
:1045D000703009F094F9206832460BA100F51E7086
:1045E00016F03CFE206800F5197009F075F8206897
:1045F0002A4605A100F52B7016F030FE206800F564
:10460000267009F069F8FEBD25640000B40500209D
:1046100070B5A2B001208DF880001F20ADF8820097
:104620004EF65B70ADF8840000202A4CADF8860091
:104630000A261A25B4F9082027A1684616F00EFEAE
:1046400020AB6A462946304608F06AFE2B25B4F9AD
:104650000A2025A1684616F001FE20AB6A462946CD
:10466000304608F05DFE3C25B4F90C2022A16846D6
:1046700016F0F4FD20AB6A462946304608F050FE9D
:104680004D25B4F9002020A1684616F0E7FD20ABC7
:104690006A462946304608F043FE5E25B4F90220FA
:1046A0001DA1684616F0DAFD20AB6A462946304661
:1046B00008F036FE6F25B4F904201BA1684616F0F9
:1046C000CDFD20AB6A462946304608F029FE22B0CF
:1046D00070BD00002C0E00204759524F5F5820201B
:1046E0003D202536640000004759524F5F59202075
:1046F0003D202536640000004759524F5F5A202064
:104700003D20253664000000416363656C5F5820DE
:104710003D20253664000000416363656C5F5920CD
:104720003D20253664000000416363656C5F5A20BC
:104730003D2025366400000030B5114CA1B0207B2F
:10474000012816D00FA16846FBF797FD6846FBF7D6
:1047500072FD6D4628440DA1626816F07FFD0F487A
:104760000068C0F8185200F5027009F0C8F821B0CE
:1047700030BD207808B10AA1E5E70BA1E3E700000E
:10478000443F0020CDA3D6B9000000002C20B2BDCC
:10479000BDF8C6B5C2CA3D2564487A00D4050020DC
:1047A000B7B4D7AA00000000D5FDD7AA00000000CA
:1047B0002DE9F04FADF2F46D01208DF888064FF62B
:1047C000FF70ADF88A061F20F04EADF88C0600276A
:1047D000ADF88E7630784FF496794FF4F078032860
:1047E00023D217F0B7FE044609F056FA424690422B
:1047F00008D1E748317843464FF4887250F82100D9
:10480000009007E0E24831780C304FF4487350F8DC
:1048100021000090002108460DF040F817F09AFEA4
:104820003278031B521CDBA16FE0E34CE34D4FF0E9
:10483000D04A052851D217F08DFE834609F02CFA94
:10484000404502D1D248183001E0D14824303178B7
:1048500000EB8100002150F80C0C009023882A887E
:10486000084608F051FE17F075FE3278A0EB0B03F6
:10487000521CD3A10DF5C96016F0F0FCCDE90097EC
:1048800005210DF5D1630DF5C962084608F050FD0C
:10489000564609F001FA40454FF0000010D1D149C9
:1048A00005E000BF31F8102026F81020401C2A88AF
:1048B00023885A438242F5D80DF2F46DBDE8F08F9B
:1048C000C94A04E032F8101026F81010401C29885C
:1048D000238859438142F5D8EEE7B346062823D210
:1048E000564617F037FE824609F0D6F900960021A9
:1048F00023882A88084608F007FE17F02BFE9BF84D
:104900000020A0EB0A03521CB8A10DF5C96016F0F7
:10491000A5FCCDE9009705210DF5D1630DF5C96220
:10492000084608F005FDC7E7DFF860B209280BF17B
:104930000C0B4CD20022B5A102A81AF067FB10B1F3
:10494000B3A016F067FC17F005FE824609F0A4F943
:10495000404503D131780BEB810004E08B4831787E
:10496000183000EB8100AFA350F8180C0090012222
:10497000AEA18EA816F072FC2088009000222B8831
:1049800011468EA80EF006FEB8B117F0E3FD32789E
:10499000A0EB0A03521CA8A10DF5C96016F05EFC3D
:1049A000CDE9009705210DF5D1630DF5C9620846E3
:1049B00008F0BEFC002295A154E017F0CBFD1F20AB
:1049C00008F09EFC32780023521CA4A1E4E70C28D6
:1049D0004CD20022AAA102A81AF018FBB8BB17F00B
:1049E000B9FD824609F058F9404503D131780BEB07
:1049F000810004E065483178183000EB8100002226
:104A000050F8243C9FA18EA816F028FC2088009026
:104A100000222B8811468EA80EF0BCFDC0B117F005
:104A200099FD3278A0EB0A03521C99A10DF5C960DB
:104A300016F014FCCDE9009705210DF5D1630DF5B5
:104A4000C962084608F074FC00228DA10AE001E06A
:104A500017F080FD1F2008F053FC32788EAB521CFB
:104A600092A1E3E700201AF0D1FA25E7B2460F2819
:104A7000FBD20026FCF7A9FF142800D00126FCF782
:104A8000AFFF142877D196BB17F064FD019009F0B1
:104A900003F9404504D19AF800100BEB810005E0C2
:104AA0003A489AF80010183000EB810085A150F8C0
:104AB000302C0DF5D26016F0D1FB0DF5D260FCF76D
:104AC000CAFFB3280BD0422809D00020CDF8D80661
:104AD000CDF8D40609F0E0F8834600252AE017F067
:104AE00039FD48E000242821BBFBF1F812E028E062
:104AF00004EB840102A800EB01100DF5DD625021EA
:104B0000FCF73CFFBDF8E806502801D0012603E081
:104B1000641CA4B2A045EBD802A80090DDF8D4062E
:104B20005B46284481B20122DDF8D80608F0ECFC8F
:104B30006D1CADB209F062F8A842D3D817F00AFD97
:104B40000090012E17D0DDE90001431A9AF80020E9
:104B50005EA1521C0DF5C96016F080FBCDE90097EF
:104B600005210DF5D1630DF5C962084608F0E0FB9B
:104B700000225DA176E71F2008F0C2FB9AF8002012
:104B80000DF5D263521C59A1E4E700008405002012
:104B9000C42C0208CDBCC6AC25642052413838373D
:104BA00035202020202C20CFD4CABECAB1BCE43A84
:104BB000202534646D7300008406002082060020E6
:104BC000CDBCC6AC2564204E4F5220464C415348C4
:104BD0002C20CFD4CABECAB1BCE43A202534646DBF
:104BE0007300000000F8276400644364CDBCC6ACC9
:104BF0002564205352414D2C20CFD4CABECAB1BC2B
:104C0000E43A202534646D7300000000313A00005E
:104C1000665F6D6F756E74CEC4BCFECFB5CDB3CA82
:104C2000A7B0DC002F5069630000000025643A251E
:104C3000732F257300000000CDBCC6AC2564204E48
:104C4000414E4420464C4153482C20CFD4CABECAC2
:104C5000B1BCE43A2025646D73000000CDBCC6AC45
:104C60002564204E414E4420464C4153482C20CED2
:104C7000C4BCFEB4EDCEF33A2025646D7300000091
:104C8000303A000025643A5069632F257300000014
:104C9000CDBCC6AC2564205344BFA82C20CFD4CAB9
:104CA000BECAB1BCE43A2025646D7300CDBCC6AC6D
:104CB0002564205344BFA8CEC4BCFEB4EDCEF33A65
:104CC000202573002F5049432F257300CDBCC6AC5F
:104CD00025642055C5CC2C20CFD4CABECAB1BCE4B3
:104CE0003A2025646D730000323A0000CDBCC6AC9A
:104CF00025642055C5CCCEC4BCFEB4EDCEF33A2518
:104D0000730000002DE9F043A3B001208DF880006E
:104D10004FF6FF70ADF882001F20ADF88400344CD0
:104D20000020ADF886002078324D00EB400005EB06
:104D300080004FF47A7680684FF06408B0FBF6F29A
:104D400006FB1201B1FBF8F34FF005092AA16846F2
:104D500016F084FA2078F10400EB400005EB8000A7
:104D60008068B1FBF0F1B1FBF6F206FB12164FF4CE
:104D70000021B1FBF0F56846FBF75DFA6F46384459
:104D800033462A4626A116F069FA20AB6A46414608
:104D9000484608F0C5FA7625A27827A1684616F09D
:104DA0005DFA6846FBF747FA3844627827A116F0A7
:104DB00055FA20AB6A462946484608F0B1FA607BAE
:104DC000882520B1012804D0022804D007E025A1BD
:104DD00002E028A100E02BA1684616F03FFA20ABC4
:104DE0006A462946484608F09BFA23B0BDE8F0839E
:104DF000D409002000000020D2F4C6B5B8F1CABD25
:104E00003A205068696C6970732C31364269742C91
:104E100025642E25646B487A202020202000000085
:104E2000C2BCD2F4CAB1B3A43A2025642E253033D3
:104E300064C3EB2020202000C2F3BFCBB7E7D4F639
:104E4000D2E6203D2025642000000000B6FABBFA1F
:104E5000D2F4C1BF203D2025642020202020202026
:104E600020200000D7B4CCAC203D20BFD5CFD0202F
:104E700020202000D7B4CCAC203D20D5FDD4DAC210
:104E8000BCD2F400D7B4CCAC203D20D5FDD4DABBE5
:104E9000D8B7C5000EB501208DF804004FF6FF709D
:104EA000ADF8060040F24D20ADF80800009008482B
:104EB0000021ADF80A1003881422084608F00AFE03
:104EC00001AB04A20221052008F02AFA0EBD000061
:104ED00084060020B0B2B8BBC0B353544D33322D5A
:104EE0005634BFAAB7A2B0E520202856312E30682C
:104EF0002900000010B54EF65B7008F001FA174C5F
:104F00002068283008F023FC20683C3008F0F7FCCB
:104F10002068503008F0F3FC2068643008F0EFFCA3
:104F20002068783008F0EBFC20688C3008F0E7FC53
:104F30002068A03008F0E3FC2068FC3008F0FCFAA0
:104F40002068B43008F0F8FA2068CC3008F0F4FAA1
:104F50002068BDE81040E43008F0EEBAA805002053
:104F600070B5ADF50F5D012501AC8DF8005042F232
:104F700094312046FBF73EF91D48446007F036FAAD
:104F800017F028FB5FF003069DF8000048B10128E8
:104F90002AD00328F8D10020FBF75AFD0DF50F5D4C
:104FA00070BD012417F0E2FA14B10024FFF704F9F0
:104FB00017F0F6F968B10D280BD004DC04280DD0E9
:104FC000072806D10DE010280BD0132809D0162889
:104FD00007D09DF800000028E4D0D5E78DF80050F8
:104FE000D2E78DF80060CFE7684600F003F8CBE722
:104FF000C00500202DE9F0418AB0064604F0B2FB5E
:1050000004F0D0FA1F2008F07BF9884C49F699117A
:105010000127C4F808D0ADF80410002584498DF8A4
:105020000070ADF80250ADF806500988684658394E
:10503000ADF80A107F4909882439ADF80C102021F9
:10504000ADF80E105021ADF810107BA1CDE905018F
:105050008DF81C50083008F06FFADFF8E481404604
:10506000FBF720FD4046FBF71DFD0220FBF7F0FC9F
:105070009621012018F052FC64E000BF17F076FA88
:10508000606800F5005090F89103012803D004E017
:1050900017F06CFA01E0FEF77DF9012017F094F8A3
:1050A00078B19621012018F039FC606800F50050B5
:1050B00090F8910328B911F069FEFEF76BF911F031
:1050C000ABFD09A908A812F07FFDE0B1012802D0CC
:1050D000032818D10AE0BDF8240082B2BDF82000F0
:1050E00081B2A068083008F0D5F80CE0BDF82400C3
:1050F00082B2BDF8200081B2A068083008F0E5F85F
:1051000008B10320307017F04BF998B30D2874D014
:1051100008DC01280DD004281ED007281ED00A283C
:1051200041D154E010282FD0132836D016283AD178
:1051300041E0606800F5805090F82E10012907D0FA
:1051400080F82E703078012898D00AB0BDE8F08140
:10515000022180F82E10F5E73570F6E76068014609
:1051600000F5005090F891232AB180F8915311F086
:1051700053FDE7E717E001F5805180F89173486827
:10518000086011F003FEDDE7606800F5005090F85C
:10519000910340B9FDF7BCFBD4E7606800F500500F
:1051A00090F8910320B1307801283FF471AFCCE73B
:1051B00004F0DEF9C6E7606800F5805090F82F1023
:1051C00011B180F82F50BDE780F82F70BAE7606802
:1051D00000F5805090F82E10012990F82F1003D080
:1051E00049B1818D491F14E019B1418D491F15E066
:1051F00003E0012114E0012114E0606800F5805013
:1052000090F82E10012990F82F1004D051B1818D03
:10521000491D818596E719B1418D491D418591E769
:10522000012000E00220FBF715FD8BE7C005002000
:105230008406002082060020B7B5BBD8000000001D
:10524000A086010009F04CBF09F074BF10B50446F8
:1052500088B008A000F056FA322108A000F09CFAAD
:10526000224608A1684615F0F9FF684600F04AFAA0
:1052700008B010BD415445300000000053454E4475
:10528000204F4B0041542B434950434C4F53453D15
:105290002564000030B5054689B013A000F032FA4D
:1052A0004FF4FA64214613A000F076FA002818D0D3
:1052B0002A4611A1684615F0D1FF684600F022FA8F
:1052C00021460CA000F068FA00280AD00FA000F0D8
:1052D00019FA42F2107107A000F05EFA002800D01F
:1052E000012009B030BD000041542B4349504D55B9
:1052F000583D31004F4B000041542B43495053451A
:10530000525645523D312C25640000004154453031
:10531000000000002DE9F047064690B00F464FF020
:10532000000923A000F0EEF9002535703D702C46F1
:105330004FF4FA7AE84652464021684600F0C8F831
:105340000C221EA16846FAF78BFF98B10E221FA10E
:105350006846FAF785FFE8B1022220A16846FAF70D
:105360007FFF18B1641CE4B2042CE4D310B04846AB
:10537000BDE8F087002042461118897B315422296C
:1053800004D0401CC0B21428F6D3EBE735544FF0DC
:105390000109E7E7002042461118C97B3954222948
:1053A00004D0401CC0B21428F6D3DBE73D54D9E743
:1053B00041542B4349465352000000002B434946B9
:1053C00053523A5354414950000000002B43494680
:1053D00053523A5354414D41432C00004F4B00006F
:1053E00010B5144690B00B46024614A1684615F05D
:1053F00035FF684600F086F922464021684600F0F5
:1054000067F8A8B1082212A16846FAF729FF48B93F
:1054100022464021684600F05BF82246402168465B
:1054200000F056F802220DA16846FAF719FF10B1F4
:10543000002010B010BD0120FBE7000041542B43B9
:10544000574A41503D222573222C22257322000009
:1054500041542B43574A4150000000004F4B00007D
:1054600010B5124C1021204602F0CDFC104901204D
:1054700018F0E3FD1021204602F0C7FC00F054F8BC
:105480004FF47A7421460BA000F086F921460BA058
:1054900000F082F94FF4E131012018F0CEFDBDE8B3
:1054A000104041F2883106A000F076B9000C0140AE
:1054B000802401006373756D000000000A00000085
:1054C00072656164790000000146002018F0AFBDEC
:1054D000F8B5110005464FF0000402D0032018F083
:1054E0001DFA00264FF4FA7717F040F8032016F063
:1054F0006BFEB0B96946012018F036FD0028F3D0E4
:105500009DF80000FFF7E0FF3946032018F006FA87
:105510009DF800002855641C9DF80000A4B20A28DC
:10552000E2D12E55E0B2F8BD10B5084C042120465A
:1055300002F069FC142016F0A5FE0421204602F0BA
:1055400064FCBDE810400A2016F09CBE001001402B
:10555000F8B506466946012018F006FD80B39DF8AF
:105560000000FFF7B1FF1E4C00251E4821784FF4C4
:1055700000720029618812D091422DD29DF800203E
:105580004254491C88B26080A288904225D125707F
:10559000658014493046FAF714FEA088F8BD9142A0
:1055A00004D29DF800204254491C61809DF80010EF
:1055B00001262B2905D06288072A0ED93A2904D062
:1055C0000BE06680A580057007E0C01D1BF01EFD86
:1055D000A0802670658000E025700020F8BD0000E6
:1055E00040070020443D00202DE9F04FA1B00446C3
:1055F0004FF000080F468DF87F803AA000F082F847
:1056000000264FF4FA59354665E04A46802168463F
:10561000FFF75EFF022236A16846FAF721FE002856
:105620005BD0052233A16846FAF71AFE002854D051
:10563000072232A16846FAF713FE002849D16846CE
:105640002821FAF7EEFD401C81461BF0DFFC84F8B0
:10565000210022214846FAF7E4FD401C8146222120
:10566000FAF7DFFD8346ABEB090292464946204636
:10567000FAF7A7FD04F80A802C215846FAF7D1FD65
:10568000401C81461BF0C2FC606222214846FAF7AA
:10569000C8FD401C81462221FAF7C3FD8346ABEBCF
:1056A00009029246494604F12800FAF78AFD0AEBFE
:1056B0000401584681F828802C21FAF7B2FD401CDD
:1056C0001BF0A4FC761C84F83C00B6B240344FF4C6
:1056D000FA696D1CADB2BD4297D321B030B2BDE8BE
:1056E000F08F000041542B43574C41500000000004
:1056F0004F4B00004552524F520000002B43574C75
:1057000041503A0010B50446FAF795FD82B22146A1
:10571000012018F04FFC0222BDE810400149012091
:1057200018F048BC4C3B020830B505464FF4006009
:1057300089B00C46814200D9044622460EA1684633
:1057400015F08CFD6846FAF776FD82B269460120B5
:1057500018F030FC4FF47A710CA000F01DF82246CE
:105760002946012018F026FC4FF4FA5108A000F059
:1057700013F809B030BD000041542B434950534544
:105780004E443D302C25640D0A0000003E00000010
:1057900053454E44204F4B00F8B50E4607460024B3
:1057A000FAF749FD0546FF280BD866B131460320BC
:1057B00018F0B4F816F0DAFE3EB1032016F004FD3E
:1057C00018B10020F8BD16F0D1FE6946012018F08E
:1057D000CBFB0028EED09DF80000FFF775FE385D8A
:1057E0009DF80010884205D1641CA4B2AC42E1D1FE
:1057F0000120F8BD0024DDE710B54FF40054204629
:1058000000F01AF8002809D00BF04EF8204600F0FE
:1058100007F82046BDE8104000F008B810BD0000B1
:105820000149086070470000140401400149086004
:105830007047000014040140064A01460020126827
:10584000044B0A4014331B680B4202D0002A00D0DC
:10585000012070470004014030B51A49837902687D
:1058600053B30B6893430B600A1D13680468A3438A
:10587000136002790A441368046823431360114AD1
:10588000083213680468A3431360131D1C6805687D
:10589000AC431C604479102C05D021440A68006890
:1058A00002430A6030BD1168046821431160196821
:1058B00000680143196030BD0079084401689143D4
:1058C000016030BD000401402DE9F041254D88B054
:1058D0001EA12868C0F8BC10AC3008F010F816F013
:1058E00039FE296807460024C1F86CD0C1F894D06D
:1058F0004FF47A78601C64214843C3096604324639
:1059000019A1684615F0AAFC28685C3007F0F7FF7B
:1059100016F020FEC01B90FBF8F218A1684615F0A7
:105920009DFC2868843007F0EAFF30460AF066FAEA
:10593000641C802CDED3286813A1C0F8BC10AC30E6
:1059400007F0DDFF08B0BDE8F0810000D5FDD4DA36
:10595000B2C1B3FD4E4F5220466C617368D0BEC6D3
:10596000AC0000007C050020307825303658202817
:10597000252525303264292020000000256420C31D
:10598000EB20202020202000B2C1B3FD4E4F52203A
:10599000466C617368B3C9B9A60000004FF020429D
:1059A00051B1102804D052F8800F40F0040009E0F3
:1059B000106E40F0040009E00549102804D052F8A8
:1059C000800F084010607047106E084010667047E6
:1059D000FBFF0F0030B5D0E901121143D0E90323DA
:1059E0001A431143426941EA4221826941EA423144
:1059F000C26941F00804D2E9001341EA0321138986
:105A0000127B1B0443EA0262036A1143D3E90025B7
:105A100042EA05221D891B7B2D0445EA03631A43D4
:105A200003684FF02040102B04D040F8804F816075
:105A3000C26030BD04668166C26630BD0549602221
:105A40000A70054A80011070000A1070D02008709A
:105A500000F004B8000001700000027010B54FF4AF
:105A6000803400F0B1F902E000F0AEF9641E402885
:105A700002D0002CF8D101E0002C00D1802010BD14
:105A800030B501218FB008020CF056FD01214FF412
:105A9000F0700CF075FD4DF6B300ADF83400032442
:105AA0008DF8364018208DF837000DA9194802F0FE
:105AB00027F94FF4F060ADF834000DA9164802F054
:105AC0001FF94025ADF834508DF8364048208DF848
:105AD00037000DA9114802F013F90120CDE909049E
