:020000040800F2
:10000000F0BE002045010008D16B000889380008C7
:1000100049630008790E0008A9DF0008000000000D
:1000200000000000000000000000000005B700080C
:10003000CD1C000800000000B575000815BF0008C1
:100040005F0100085F0100085F0100085F01000810
:100050005F0100085F0100085F0100085F01000800
:100060005F0100085F0100085F0100085F010008F0
:100070005F0100085F0100085F0100085F010008E0
:100080005F0100085F0100085F01000871DD0008E2
:10009000BDDD00085F0100085F0100085F01000886
:1000A0005F0100085F0100085F0100085F010008B0
:1000B000C9C000085DC1000845C200085F01000812
:1000C0005F0100085F0100085F0100085F01000890
:1000D00029B60008F1DB0008FDDB000809DC000898
:1000E000AD2700085F0100085F0100085F010008FC
:1000F0005F0100085F0100085F0100085F01000860
:100100005F010008F19F00085F0100085F0100081F
:100110005F0100085F010008C1C20008E9C20008D1
:100120005F0100085F0100085F0100085B1900081B
:10013000DFF80CD000F06CFB004800475D1E0108A2
:10014000F0BE00200648804706480047FEE7FEE76D
:10015000FEE7FEE7FEE7FEE7FEE7FEE7FEE7FEE777
:1001600091BF00083101000840EA01039B0703D05A
:1001700009E008C9121F08C0042AFAD203E011F8E6
:10018000013B00F8013B521EF9D27047D2B201E0A8
:1001900000F8012B491EFBD270470022F6E710B58C
:1001A00013460A4604461946FFF7F0FF204610BDE5
:1001B000421C10F8011B0029FBD1801A704710B5B2
:1001C000002200E0521C835C8C5CA34201D1002B16
:1001D000F8D1D8B2E1B2401A10BD30B504460020C3
:1001E000034600E05B1C934203D2E05CCD5C401B05
:1001F000F8D030BD034611F8012B00F8012B002A7E
:10020000F9D11846704730B480EA010202F0004587
:1002100030F0004221F0004013D090B1C30DD40D56
:10022000C2F31601C0F31600E41A41F4000140F4D1
:1002300000027D34914201D3641C00E04900002C8F
:1002400002DA30BC002070474FF4000000239142D6
:1002500001D3891A034340084FEA4101F7D151B154
:10026000914202D14FF0004105E002D24FF001016E
:1002700001E06FF0010103EBC450284430BC00F0F2
:100280005CB9420005D0C0F3C7525242914201DC32
:100290000020704700EBC15070472DE9FE4F81EA06
:1002A000030404F0004421F0004100944FF0000BDF
:1002B00023F0004350EA01045ED052EA03045BD00D
:1002C000C3F30A54C1F30A552C44A4F2F334019445
:1002D000A0FB0254C1F3130141F48011C3F31303D3
:1002E00043F4801301FB024400FB034E840A970A87
:1002F00044EA815447EA8357A4FB076802958D0AB4
:1003000005FB07854FEA932C04FB0C542705029D3F
:100310004FEA065847EA1637B5EB08056EEB070CAF
:10032000870E920E47EA811742EA8312A7FB020169
:10033000B6EB0B0164EB00042B0D43EA0C335E18A3
:1003400044EB1C50DA465146E7FB0201C5F31304A7
:100350004FEA0B3343EA14534FEA0432019C43EA59
:100360000603A4F10C040294009CCDE900B400F053
:100370002AF903B0BDE8F08F00200146F9E72DE926
:10038000F04D81EA030404F0004B21F000451446CF
:100390004FF0000A23F0004150EA050220D054EA51
:1003A00001021DD0C5F30A570246C5F31303C1F37A
:1003B0001300C1F30A5640F4801543F48013A7EBF1
:1003C0000608101BD64608F2FD3873EB050002D371
:1003D00008F1010801E092185B41B8F1000F03DA5F
:1003E00000200146BDE8F08D00204FF48011064644
:1003F00084460EE0171B73EB050705D3121B63EB56
:10040000050306434CEA010C49084FEA30009218F4
:100410005B4150EA0107EDD152EA030012D082EAB3
:10042000040083EA0501084305D0101BAB4106D246
:100430000122002306E000224FF0004302E06FF0AB
:10044000010253101AEB06004CEB085110EB0A00A6
:1004500041EB0B01BDE8F04D00F0A6B89623002259
:10046000114600F073B800F0004230F000400AD0AE
:10047000C10D01F56071C0F3160042EA0151C208D6
:1004800040071143704700200146704730B50B46C6
:10049000014600202022012409E021FA02F59D42B4
:1004A00005D303FA02F5491B04FA02F52844151E88
:1004B000A2F10102F1DC30BD2DE9F05F054600201C
:1004C00092469B4688460646814640241BE02846C5
:1004D00041464746224600F020F853465A46C01A85
:1004E000914110D311461846224600F0A3F92D1A67
:1004F00067EB01084F4622460120002100F09AF9DF
:1005000017EB00094E41201EA4F10104DFDC484630
:1005100031462A464346BDE8F09F202A04DB203AB4
:1005200021FA02F00021704721FA02F3D040C2F113
:10053000200291400843194670470029A8BF704720
:10054000401C490008BF20F00100704710B4B0FA09
:1005500080FC00FA0CF050EA010404BF10BC7047A4
:1005600049B1CCF1200421FA04F411FA0CF118BFBE
:10057000012121430843A3EB0C01CB1D4FEA00618D
:100580004FEA102042BF002010BC704700EBC35060
:1005900010440029A4BF10BC7047401C490008BF8C
:1005A00020F0010010BC704710B5141E73F1000458
:1005B00008DA401C41F1000192185B411A4301D155
:1005C00020F0010010BD2DE9F04D92469B4611B17F
:1005D000B1FA81F202E0B0FA80F22032904600F0E7
:1005E00029F904460F4640EA0A0041EA0B01534646
:1005F0005A46084313D0114653EA010019D0C8F1F6
:1006000040025046FFF789FF05460E4650465946C0
:10061000424600F00FF9084305D0012004E02046CF
:100620003946BDE8F08D0020054346EAE0762C43CC
:1006300037430A986305E40AA0EB08000022FD0A8C
:1006400044EA47540A3002D500200146E9E7010593
:1006500010196941DDE9084500196941BDE8F04D0F
:10066000A2E72DE9FE4F804681EA0300C00F0C4649
:10067000009021F0004123F00045B8EB0200A941B1
:1006800005D24046214690461C460B46024623F0C2
:100690000040104347D0270DC7F30A00C3F30A51A7
:1006A0000290401A019040286BDAC3F3130040F423
:1006B000801B0098924620B10023D2EB030A63EB23
:1006C0000B0B01985946C0F14002504600F0B2F8B9
:1006D00006460D4650465946019A00F0BAF810EB0E
:1006E00008006141002487EA115284EAE7731A4343
:1006F00040D0009A62B3019A012A4FEA075215DCF2
:10070000001B61EB02014FF0004202EA0752CDE903
:100710000042001C41F5801132462B46FFF753FF83
:1007200003B0BDE8F08F40462146F9E7001B61EBBE
:100730000201001C41F5801300185B412018A2F54E
:10074000001747EB030140EAD570B6196D4111E07F
:100750006D084FEA360645EAC0754FEA0752001B9E
:1007600061EB0201001C41F5801149084FEA30009D
:100770000019514132462B4603B0BDE8F04FFFF758
:1007800013BF0098012240000023D0EB020263EB6C
:10079000E073009821464FEAE074B8EB000061EB8B
:1007A0000401E9E783F000435BE781F0004158E78B
:1007B000C1F30A52C1F3130140F2FF3341F4801137
:1007C0009A4202DA00200146704740F233439A42CF
:1007D000A2F2334202DC5242FFF79FBE00F02AB879
:1007E00030B5041E71F1000404DB4FF000444042B8
:1007F00064EB0101141E73F1000405DB1C464FF08D
:100800000043524263EB0403994208BF904230BD5B
:10081000064C074D06E0E06840F0010394E807004D
:1008200098471034AC42F6D3FFF786FCE08F0408FB
:1008300000900408202A04DB203A00FA02F100208C
:1008400070479140C2F1200320FA03F3194390400E
:100850007047202A06DBCB17203A41FA02F043EA20
:10086000E07306E041FA02F3D040C2F12002914069
:1008700008431946704770B58C1810F8015B15F0E5
:10088000070301D110F8013B2A1106D110F8012B02
:1008900003E010F8016B01F8016B5B1EF9D12B0727
:1008A00005D40023521E0DD401F8013BFAE710F8DD
:1008B000013BCB1A921C03E013F8015B01F8015BCA
:1008C000521EF9D5A142D8D3002070BD2DE9FE4FAC
:1008D00000208DF80000364801883648B1F5F07FD9
:1008E000C28834D0344B00BF03EBC2024623D28807
:1008F000ADF8022049F69912ADF804200122ADF8B6
:1009000006205022B1FBF2F2D6B22C4A4FF0190B5E
:100910001288283A92FBF3F2D7B206FB07F41522AD
:10092000B2FBF4F28470521C4270C6F1010202EB79
:10093000820201EB0211303901EBD171C1F34F0199
:10094000029100787043784385B200202BE01A4B67
:10095000383BC9E7C8EBC80000EB80010BEB410056
:100960001FFA80FA0024DDF8089015E011480022F3
:100970000C3000EB45106946A0F80290A0F804A0E6
:1009800004F0AFFA6D1CADB2162D0FD209F1500074
:10099000641C1FFA80F9E4B2B442E7D3162D05D2E5
:1009A00008F10100C0B28046B842D3D3BDE8FE8F43
:1009B000A803002004000020982D0108A6030020B1
:1009C00001221146052000F049B800002DE9FC4144
:1009D0001F4C2078002821D0A788002F1ED0254644
:1009E0001C4A2D8994F801C06D1CAEB291151A48AD
:1009F000002540F2DC53BCF1000F11D0BCF1010F17
:100A00000CD12681BE4209D3E688B6B167897F1C26
:100A1000BFB26781B74210D32570A580BDE8FC81C5
:100A200026816788BE42F9D3CDE9003501230EF057
:100A30006DFF258101206070F0E72581657041F22E
:100A40008834CDE9003401230EF060FFE6E70000B2
:100A50001C070020002C0140000801401CB50028A4
:100A600015D00B4B58809980DA800020188158816E
:100A700058700120187041F2883140F2DC50054A6C
:100A8000CDE900010123911503480EF03FFF1CBD85
:100A90001C070020002C0140000801401CB507493C
:100AA0000020074A087040F2DC51CDE90010012314
:100AB000911504480EF02AFF1CBD00001C07002001
:100AC000002C01400008014010B51F2801D81F204C
:100AD00002E0FE2800D3FE20084C4021207001EBEC
:100AE000501000F05FF8207800F01F00603000F038
:100AF00059F86078BDE8104000F002B80403002007
:100B000010B50B4C012808D002280BD003280ED1B9
:100B1000132000F047F8032008E0102000F042F80E
:100B2000012003E0112000F03DF80220607010BDAC
:100B30000403002070B500F01DF80D4E0446307817
:100B400000EB40004000FFF789FC054640F25910D9
:100B50006043FFF783FC2946FFF755FB71780229B4
:100B600004D1BDE87040C91EFFF78BBB70BD00000B
:100B70000403002070B511F09DF8472011F072F8C1
:100B800011F0BEF811F04AF8044611F001F811F026
:100B900045F8054611F030F811F0A0F805EB0420F7
:100BA00080B270BD10B5044611F084F8462011F0F3
:100BB00059F811F0A5F8204611F054F811F0A0F8FA
:100BC000BDE8104011F08AB810B5012007F00AFF07
:100BD000BDE81040002007F005BF000008B502493D
:100BE00008440090008808BD006C004008B5024A27
:100BF00010440090016008BD006C004070B50446D0
:100C000011F058F8EE2011F02DF811F079F8204687
:100C100011F028F811F074F811F04CF8EF2011F0F1
:100C200021F811F06DF810F0F9FF044610F0B0FF54
:100C300010F0F4FF054610F0DFFF11F04FF805EB60
:100C4000042080B270BD00002DE9F0412E21F42077
:100C500000F0B0F800F098F8F620FFF7CFFF484C0E
:100C600080463420A17D00EB8110C1B2F42000F059
:100C7000A1F800F089F8F62511F01CF8EE2010F02C
:100C8000F1FF11F03DF8284610F0ECFF11F038F8B4
:100C900011F010F8EF2010F0E5FF11F031F810F02E
:100CA000BDFF074610F074FF10F0B8FF064610F0C5
:100CB0006FFF10F0B3FF054610F09EFF11F00EF825
:100CC000380400EB0620A17D4319C1F108006289B8
:100CD000C340A8EB02002289B4F914505043B4F980
:100CE0001220C013D202054492FBF5F2104400F129
:100CF00008021211A261B4F90E50A0F57A6000FB4F
:100D000000F25543B4F90260ED15464305EBE625C4
:100D1000B4F9006005EB86058D40B4F90460121348
:100D200046437013B4F90C60AD1C564300EB2640EB
:100D3000801C8010E28800F500404243A3EBA50030
:100D4000D20B4CF25033CB405843B0F1004F03D29A
:100D50004000B0FBF2F002E0B0FBF2F04000011204
:100D6000494340F6DE3251430A140649414302EB3F
:100D7000214101F6CF6100EB2110E061BDE8F08177
:100D80009034002043E3FFFF0948807D40B10128F3
:100D900008D0022808D0032808D11B200DF056BF28
:100DA0000620FBE70920F9E70F20F7E7704700006E
:100DB0009034002070B50D46044610F07BFFEE2005
:100DC00010F050FF10F09CFF204610F04BFF10F089
:100DD00097FF284610F046FF10F092FFBDE87040E4
:100DE00010F07CBF2DE9F0410C460746C1B21D460C
:100DF00016465820DDF8188007F0C0FD390A592042
:100E000007F0BCFDE1B25A2007F0B8FDB8F1000FC1
:100E100017D0802040EA14215B2007F0AFFDE9B233
:100E20005C2007F0ABFD290A5D2007F0A7FDF1B2B9
:100E30005E2007F0A3FD310ABDE8F0415F2007F016
:100E40009DBD210AE8E710B578B14FF48054012820
:100E500005D002280FD1102101200AF0F5FD21460E
:100E6000BDE8104002200AF0A7BD1021BDE81040E7
:100E700001200AF0E9BD10BDFEE7C1B2000A40EA58
:100E80000120704710B500EB0113D3F8B04114F006
:100E900004041472D3F8B04134D0E408C2F804401A
:100EA000D3F8B04104F002045472D3F8B44104F012
:100EB0000F049472D3F8B441240AD474D3F8B8411F
:100EC000D472D3F8B841240A1473D3F8B841240C6F
:100ED0005473D3F8B841240E9473D3F8BC41D4733F
:100EE000D3F8BC41240A1474D3F8BC41240C5474C4
:100EF000D3F8BC311B0E937439B1016941F0200164
:100F0000016110BD640D1460CAE7C16841F02001A1
:100F1000C16010BD70B5614B614C00205988A4F1CF
:100F2000400202E0155C2554401C0D468842F9D36E
:100F30005B48626820301F2D4260A268826007D043
:100F40000220FFF780FF00202060607B1A2221E052
:100F5000E17B282901D02A290AD1D4F81100227D69
:100F600000BA20F0FF0010435860E08A40BA986051
:100F70004C4A2068904252D14B4A607B12689042A2
:100F800003D8A27B0AB1102A0DD90220FFF75BFF1C
:100F9000607B242205210AF0EFFDBDE870400021AE
:100FA00001200AF0CBBD252958D01ADC152971D0B3
:100FB0000DDC08296ED005DCB9B3032936D004292D
:100FC0002DD163E00A2965D0122928D132E01A39DF
:100FD0000A2924D2DFE801F03632235E32232323AC
:100FE000233E8A2956D00EDC552953D006DC282909
:100FF0003CD02A2940D02F2911D143E05A2925D0AD
:1010000088290CD146E0A82944D004DC8F2941D09E
:101010009E2904D13EE0AA293CD0AF293AD0022033
:10102000FFF711FF607B2022B4E71BE0BDE87040B2
:1010300008F09CBEBDE8704008F0B6BDBDE8704049
:1010400008F0A0BEBDE8704008F0E8BDBDE8704003
:1010500008F0DEBDBDE8704008F052BEBDE870404B
:1010600008F016BEBDE8704008F090BED3E901124A
:10107000BDE8704008F0D8BDD3E90112BDE870406A
:1010800008F0BABEBDE8704008F09CBEBDE87040F4
:1010900008F06CBDBDE8704008F0A0BD6005002000
:1010A000743E002055534243A004002070B506460C
:1010B00014460D463A2011F00DFEE8B211F022FE62
:1010C000280A11F01FFE11F0FFFD0CB1002011E005
:1010D0000DF00CF81D280FD1304600F062F80546DF
:1010E0003B2011F0F7FD11F0EFFD2E44002CEFD066
:1010F000208828442080EBE770BD10B506F000FE84
:1011000008B100F043F8BDE81040302000F05FB8AF
:10111000312000F05CB810B5044600F061F820788A
:101120005C2801D02F2803D10021642000F073F83F
:10113000BDE81040322000F04AB870B505460020E6
:101140000E46012401E0641CE4B2295D5C2913D041
:101150002F2911D00029F6D100242844FFF7DBFF06
:10116000002C08D0B44206D041280AD0142806D05A
:10117000422800D1B32070BD641CE4B2EDE74320E7
:1011800070BD2046E1E7FF21FFF7D7BF10B5222051
:1011900011F0A0FD11F09BFD044611F095FD2046D5
:1011A00010BD70B50546272011F094FD11F08FFD9C
:1011B0000400264607D011F08AFD641E05F8010BD5
:1011C00014F0FF04F7D111F07FFD304670BD10B56B
:1011D00011F080FD11F078FDBDE810400CF086BFE5
:1011E00070B505462F2011F075FD2C7806E000BF84
:1011F00015F8014F5C2C0AD02F2C08D0204611F096
:1012000081FD002CF4D1BDE8704011F05DBD0020DF
:1012100011F078FDF7E770B505460C460D2011F08A
:1012200059FD284611F06EFDE0B211F06BFDC4F3DC
:10123000072011F067FDC4F3074011F063FD200E95
:1012400011F060FDBDE8704011F03EBD38B50121E0
:10125000C02007F0BBFB4FF48064ADF800401020C5
:101260008DF8030003208DF802006946034802F060
:10127000B9F802481030046038BD0000001C01407D
:101280002DE9F041184E194F194C1A4D26E000BFB8
:1012900047F6FF702060288800F00F0107EB8100FF
:1012A0003170D0F8002C92B2130408D5D0F8002C7D
:1012B00040F68F731A40C0F8002C0F4809E0120660
:1012C0000CD5D0F8002C48F60F731A40C0F8002C4B
:1012D0000A4800EB810050F8040C80472068288001
:1012E0000004D5D4BDE8F08136060020005000404F
:1012F000445C0040C0050020A405002088050020B3
:101300002DE9F84F0020ADF80000DFF834A14BF6CE
:10131000BF7648F280074A4D4A4C40F68F7848F62F
:101320000F7BDFF824910AF1440A31E00888474A2C
:1013300010F00F00107034D0454901EB8001D1F856
:10134000002CADF80020BDF8002012040BD5D1F818
:10135000002C02EA0802C1F8002C3E4901EB800093
:1013600050F8040C8047BDF80000000610D537483F
:101370003749007801EB8001D1F8002C02EA0B021A
:10138000C1F8002C344901EB800050F8040C804770
:10139000DAF800004946A9F800000004C6D4BDE808
:1013A000F88F28682080208800F030006080208836
:1013B00000F4405020802868304080F4005080F0D5
:1013C0002000384328600888C006286815D400EA41
:1013D0000B00286002F0BAFD26E02188890401D5BF
:1013E00080F400506188C90626D46188890601D539
:1013F00080F0200038432860D1E7ADF80000BDF848
:101400000000000506D5286800EA080028600AF0F8
:10141000B9FB09E0BDF800000004B9D5286800EA6E
:101420000800286005F09CFC286821883040C90429
:10143000D3D580F48050D0E780F01000D5E70000CD
:10144000005C004046060020C00500203606002053
:1014500000500040A40500208805002010B55B1A4C
:10146000029C241A6343101A93FBF0F0084410BD49
:10147000810008480844D0F8001C490409D5D0F878
:10148000001C48F68F7211404CF280021143C0F8E4
:10149000001C704700500040810008480844D0F804
:1014A000001C490609D5D0F8001C48F68F7211407F
:1014B00048F2C0021143C0F8001C704700500040C1
:1014C000810006480144D1F8000C48F68F621040B4
:1014D00048F280021043C1F8000C704700500040F1
:1014E00070B5374905460024486B10F0450FFBD016
:1014F000410702D50324042003E0C00704D00124DF
:10150000204608F00BFD59E008F048FDA8422BD119
:1015100040F2FF5008F002FD002008F061FD29496B
:1015200008424BD0002801DA1C2070BD410001D5D3
:10153000092070BD810001D50A2070BDC10001D510
:101540000B2070BD010101D50C2070BD410101D5FA
:101550000D2070BDC10101D50E2070BD010201D565
:101560000F2070BD410201D5102070BD810201D550
:10157000112070BDC10201D5122070BD010301D53B
:10158000132070BD410301D5142070BD810301D526
:10159000152070BDC10301D5162070BD010401D511
:1015A000172070BD410401D5182070BD810401D5FC
:1015B000192070BD000701D51A2070BD204670BDEE
:1015C0000080014008E0FFFD10B50B480024416B8E
:1015D00011F0450FFBD0480702D50324042003E097
:1015E000C80705D00124204608F098FC204610BD0D
:1015F00040F2FF50F8E700000080014070B50C4653
:10160000194906460025486B10F0450FFBD04107ED
:1016100002D50324042003E0C00705D0012420469E
:1016200008F07CFC204670BD08F0B8FCB04212D136
:1016300040F2FF5008F072FC002008F0D1FC10F4DA
:10164000604F03D0810404D5132070BD000C2080AE
:1016500007E0410401D5102070BD000401D50F2022
:1016600070BD284670BD00000080014028B10128EF
:1016700005D0022805D00020704703487047034872
:101680007047034870470000181C002040240020C9
:10169000682C002070B5084D082420B12C61BDE8ED
:1016A00070400EF097BB0EF08FFB4FF445700EF0BC
:1016B0001BF96C6170BD00000010014010B50824DA
:1016C00028B108480460BDE810400EF083BB0EF05E
:1016D0007BFB4FF445700EF007F90248001D0460D3
:1016E00010BD0000100C014070B505000C464FF015
:1016F000000011D0FFF7E2FF200C0EF0A9FC200A39
:101700000EF0A6FCE0B20EF0A3FC4FF0010035B1E4
:10171000BDE87040FFF7D2BFFFF7BCFFECE7BDE8C4
:101720007040FFF7B7BF000070B5084D082420B126
:101730002C61BDE870400EF04DBB0EF045FB4FF440
:1017400045700EF0D1F86C6170BD000000100140D2
:1017500030B1012807D141F4C81000BF00F004B82F
:1017600041F4C010FAE7704710B504460020FFF7B7
:10177000DBFFC4F307400EF06BFCC4F307200EF050
:1017800067FCE0B20EF064FCBDE810400120FFF7FA
:10179000CBBF00002DE9F0473F4D4FF48076044663
:1017A0006E6114200DF052FA2E610F200DF066FAD2
:1017B0000026A868C00507D50A200DF05FFA761C40
:1017C000F6B20A2EF5D365E00A2E63D20026A86889
:1017D000C00507D40A200DF051FA761CF6B20A2E85
:1017E000F5D357E00A2E55D20026A868C00507D5C4
:1017F0000A200DF043FA761CF6B20A2EF5D349E022
:101800000A2E47D20026A8460025A9466806050EDE
:101810005FF00007D8F80810C90507D40A200DF0BA
:101820002DFA7F1CFFB20A2FF4D31AE00A2F18D228
:101830005FF00007D8F80800C00506D50A200DF0B3
:101840001DFA7F1CFFB20A2FF4D3032F01D96D1CA0
:10185000EDB209F1010000F0FF09B9F1080FD5D38D
:1018600000E0FF25A555761CF6B2052ECCD36420EA
:101870000DF004FA21786078E3780A18A078034420
:101880001A442379D2B2934204D16071A17101202C
:10189000BDE8F0870020FBE70020014008B50121EA
:1018A000080207F07BF8012140F2E11007F08EF802
:1018B0004CF23370ADF8000003208DF802001820C0
:1018C0008DF8030069460D4801F08CFD4FF69870C5
:1018D000ADF8000069460A4801F084FD0420ADF827
:1018E00000006946074801F07DFD4FF48050ADF8D7
:1018F00000006946044801F075FD08BD0014014070
:1019000000180140001C01400020014000B597B0C4
:1019100000200421CDE910010F90149006211590AC
:10192000CDE9001012901021CDE90201139004902E
:101930000590069009020790CDE908010A900B90E6
:101940000C900FA80D900E90684601F0ADFA0121A1
:10195000062001F099FA17B000BD08F087BF00001B
:10196000C10002D5024908607047024948607047CB
:1019700004040240000002400029016802D041F046
:10198000010102E04FF6FE72114001607047002A2B
:10199000026801D00A4300E08A430260704730B514
:1019A000036847F6F07293430C6A8A682243D1E9D0
:1019B00004452C4322438C692243CC6922434C6A60
:1019C00022438C6A22431A430260CA6842600A6852
:1019D00082604968C16030BD2DE9F047DFF894802E
:1019E000254F4FF03009D8F8001001F11005088A92
:1019F0000E7A08B9042E04D0AC88A04215D804266B
:101A000014E01E480178012903D0072610203880F1
:101A10002BE01B4A002112681A4B120403EBD2324E
:101A20005160A7F8009001701FE00226844200D99F
:101A30000446A968204688478246002001F07CFEC3
:101A40000146224650460CF0B1FA2146002009F02A
:101A5000EDFF2888001B2880688820446880A7F84C
:101A6000009009494FF440500880D8F800000672F1
:101A7000BDE8F08738060020480600203206002026
:101A8000505C004000600040460600202DE9F04711
:101A9000224EDFF88C803027356835F8100FA968A2
:101AA000A9B100B3AC88844200D9044620468847D7
:101AB00081462888001B2880688820446880002090
:101AC00001F01AFE01462246484605F06DF92888C5
:101AD00048B114494FF4405008800021084609F0ED
:101AE000A5FFA8F800702888A988884201D30320A0
:101AF00001E020B1052031680872BDE8F087316847
:101B000006200872084900200968084A090402EB07
:101B1000D1314860A8F80070EFE7000038060020D7
:101B20004806002046060020505C0040006000404F
:101B3000F8B55D4C5D4D092620680027296842787C
:101B4000062A05D0AAB1082A4DD00A2A50D06BE047
:101B50000278520668D18078012804D0022804D087
:101B6000032804D060E0C96956E0096A54E0496A74
:101B700052E04288B2BBC288022A55D102798ABBA0
:101B80000278530601D1838833B102F07F02012A23
:101B900004D0022A0CD047E045493DE08A694079EB
:101BA00000219047F0B92068807A0028F4D13BE00A
:101BB000417901F00F0001F070020B063D4901EB85
:101BC0008001D1F8001C03D5C1F30111090102E025
:101BD000C1F301310903384B1B78834224D90AB978
:101BE0000029D9D120E0007840061DD1334913E007
:101BF000027802F07F02012A16D1827AA2B14288CD
:101C000092B9027982B9C288012A0DD18A694079D4
:101C10000021904740B92A4931B12068478281614B
:101C200000208847002006E029682068096940787C
:101C30008847032813D021680A8AA2F57F43FF3B17
:101C40000BD002280ED06AB10878000626D5C888C5
:101C5000009082420AD9088218E00E72F8BD20680E
:101C60000672F8BD4FF008000872F8BD0ED2286861
:101C7000144B90F82C00824201D21F7006E0B2FB98
:101C8000F0F400FB142008B901201870286890F8BF
:101C90002C008882BDE8F840FFF79EBE0320087242
:101CA000094900030880F8BD380600203C060020E2
:101CB00055BD000800500040C2050020E9BC0008E6
:101CC0002DBD0008320600204606002070470000A7
:101CD00070B5A2B001208DF880001F20ADF8820001
:101CE0004EF65B70ADF88400164E0020ADF886000D
:101CF000B0690A2490FBF4F190FBF4F204FB1103A9
:101D0000972511A168460CF0C1FA20AB6A46294616
:101D1000204602F0E3FEF0694FF47A7190FBF1F295
:101D200001FB120390FBF1F2A8250DA168460CF00F
:101D3000ADFA20AB6A462946204602F0CFFE22B01B
:101D400070BD000090340020BBB7BEB3CEC2B6C891
:101D500020203D202533642E2564A1E600000000EC
:101D6000B4F3C6F8D1B9C1A620203D202533642E96
:101D7000253033644B50610038B51F48214A204953
:101D800003881E481288B3F5F07FC08801EBC004B9
:101D900007D1A1F13805B2F5887F0BD0B2F5A07F4D
:101DA00012D051F8301017480088283801B382B299
:101DB000009111E055F83010E82209B100910BE0D4
:101DC00005EBC00080880DE055F830504FF48C7260
:101DD0003DB151F8300000901421002002F070FF56
:101DE00038BDA08800901421002003F097F938BD79
:101DF000A18882B20091F6E7A80300200400002029
:101E0000982D0108A60300203EB501208DF804009E
:101E10004FF6FF70ADF8060040F24D200C4CADF8C7
:101E200008000021ADF80A10009020881422143810
:101E300081B208480388002003F070F9208801ABC4
:101E4000123881B204A2052002F048FE3EBD000017
:101E5000A6030020A80300204B333AD0A3D7BC2010
:101E60004B313AB1B3BEB0204F4B3ACFD4CABEB714
:101E7000BDCFF20000B589B001228DF8182049F6D7
:101E80009912ADF81C200022ADF81A20ADF81E20E2
:101E900006AA0392002816D10C4800884038ADF8F5
:101EA00002000B4800888DF814102438ADF80400A7
:101EB0002020ADF806003C20ADF8080005A00490F5
:101EC000684602F015FF09B000BD0000A80300201D
:101ED000A6030020B7B5BBD800000000F0B5A5B040
:101EE0000A27D02622A8FFF755FC01240021164D11
:101EF0004EF65B7201288DF8804015D04FF4784083
:101F0000ADF88420ADF882000C46ADF886100FA124
:101F100068460CF0BBF920AB6A463146384602F001
:101F2000DDFD2C7025B0F0BDADF884201F20ADF88C
:101F30008200ADF886109DF88D309DF88E2008A1A6
:101F400068460CF0A3F9E6E7D0020020CEB4B7A2B1
:101F5000CFD64448543131202020202020200000BA
:101F6000CAAAB6C820256425252CCEC2B6C820250D
:101F700064A1E620202020202020000010B54EF68D
:101F80005B7002F09BFD154C2068203002F080FF52
:101F90002068343003F054F820685C3003F050F8C7
:101FA0002068843003F04CF82068AC3003F048F827
:101FB0002068483003F044F82068703003F040F89F
:101FC0002068983003F03CF82068C03003F038F8FF
:101FD0002068BDE81040D43002F08ABEF80200202C
:101FE000F0B54EF65B7487B0204602F067FD012025
:101FF0008DF81400ADF818400020ADF81600ADF8CB
:102000001A0005A803900820ADF804007820ADF868
:1020100006001FA005244FF4DC760490ADF80240C2
:10202000ADF80860684602F033FFDC20ADF8080028
:1020300085271BA0ADF8047034250490ADF802404C
:10204000ADF80650684602F023FFE620ADF8020026
:10205000D720ADF8080017A0ADF804700490ADF8D3
:102060000650684602F014FFBE20ADF8040015A02B
:102070000490ADF80240ADF80650ADF8086068462F
:1020800002F006FF00210846FFF7F4FE07B0F0BD9E
:102090004D50553630353020CDD3C2DDD2C700008B
:1020A000424D5031383020C6F8D1B9BCC6BACDCE79
:1020B000C2B6C80042483137353020B9E2D5D5B66E
:1020C000C8000000444854313120CEC2CAAAB6C864
:1020D000B4ABB8D0C6F7000070B5A2B001208DF83F
:1020E00080001F20ADF882004EF65B70ADF88400D2
:1020F00000202A4CADF886000A261A25B4F90820DB
:1021000027A168460CF0C2F820AB6A462946304643
:1021100002F0E4FC2B25B4F90A2025A168460CF056
:10212000B5F820AB6A462946304602F0D7FC3C257C
:10213000B4F90C2022A168460CF0A8F820AB6A463E
:102140002946304602F0CAFC4D25B4F9002020A1F2
:1021500068460CF09BF820AB6A462946304602F0F0
:10216000BDFC5E25B4F902201DA168460CF08EF876
:1021700020AB6A462946304602F0B0FC6F25B4F920
:1021800004201BA168460CF081F820AB6A46294662
:10219000304602F0A3FC22B070BD0000A809002068
:1021A0004759524F5F5820203D20253664000000DB
:1021B0004759524F5F5920203D20253664000000CA
:1021C0004759524F5F5A20203D20253664000000B9
:1021D000416363656C5F58203D2025366400000034
:1021E000416363656C5F59203D2025366400000023
:1021F000416363656C5F5A203D2025366400000012
:102200002DE9F04FADF2EC6D01208DF888064FF608
:10221000FF70ADF88A061F20F04EADF88C0600273F
:10222000ADF88E7630784FF496794FF4F078032835
:1022300022D20CF057FE044603F052F84246904278
:1022400008D1E748317843464FF4887250F82100AE
:10225000009007E0E24831780C304FF4487350F8B2
:10226000210000900021084605F0BAFD0CF03AFE6E
:10227000031B3278DBA171E0E34CE44D4FF0D04A10
:10228000052854D20CF02EFE834603F029F8404571
:1022900002D1D348183001E0D1482430317800EB26
:1022A0008100002150F80C0C009023882A880846F1
:1022B00002F006FD0CF016FE3278A0EB0B03D4A161
:1022C0000DF5C960521C0BF0E1FFCDE90097052127
:1022D0000DF5D1630DF5C962084602F007FC5646BC
:1022E00002F0FEFF40454FF0000011D1D14906E059
:1022F00001EB4002B2F8002826F81020401C2A8882
:1023000023885A438242F3D80DF2EC6DBDE8F08F7A
:10231000C94A06E002EB4001B1F8001426F810109B
:10232000401C2988238859438142F3D8ECE7B346FF
:10233000062823D256460CF0D5FD824602F0D0FF87
:102340000096002123882A88084602F0B9FC0CF088
:10235000C9FD9BF80020A0EB0A03B8A10DF5C960E8
:10236000521C0BF093FFCDE9009705210DF5D163C9
:102370000DF5C962084602F0B9FBC5E7DFF85CB2AB
:1023800009280BF10C0B4CD20022B4A102A80EF0CC
:1023900017FE10B1B2A00BF069FF0CF0A3FD82464E
:1023A00002F09EFF404503D131780BEB810004E041
:1023B0008A483178183000EB8100AEA350F8180C31
:1023C00000900122ADA18EA80BF060FF2088009044
:1023D00000222B8811468EA807F0DAFAC0B10CF063
:1023E00081FD3278A0EB0A03A7A100BF0DF5C960FB
:1023F000521C0BF04BFFCDE9009705210DF5D16381
:102400000DF5C962084602F071FB002293A150E06D
:102410000CF068FD1F2002F051FB00233278A3A1CD
:10242000E4E70C2849D20022A9A102A80EF0C8FDB9
:1024300040BB0CF057FD824602F052FF404503D1ED
:1024400031780BEB810004E064483178183000EB00
:102450008100002250F8243C9EA18EA80BF016FFAC
:102460002088009000222B8811468EA807F090FA51
:1024700030B10CF037FDA0EB0A03327898A107E0E9
:102480000CF030FD1F2002F019FB32788EAB9BA1BF
:102490000DF5C960521C0BF0F9FECDE9009705213E
:1024A0000DF5D1630DF5C962084602F01FFB00224D
:1024B00087A100200EF084FD26E7B2460F28FBD24C
:1024C0000026FEF71AFE142800D00126FEF720FE93
:1024D000142879D18EBB0CF005FD019002F000FFAD
:1024E000404504D19AF800100BEB810005E03B4811
:1024F0009AF80010183000EB810086A150F8302CBB
:102500000DF5D2600BF0C2FE0DF5D260FEF73BFE7A
:10251000B3280BD0422809D00020CDF8DC06CDF836
:10252000D80602F0DDFE804600252BE00CF0DAFC38
:102530004AE000244FF0280B12E02AE004EB84016B
:1025400002A800EB01100DF5DD625021FEF7AEFD93
:10255000BDF8E806502801D0012605E0641CA4B2AD
:10256000B8FBFBF0A042E9D802A80090DDF8D8063D
:102570004346284481B20122DDF8DC0602F0A0FBCC
:102580006D1CADB202F05EFEA842D2D80CF0AAFCDF
:102590000090012E18D0DDE90001431A9AF80020BE
:1025A0005EA100BF0DF5C960521C0BF06FFECDE9B6
:1025B000009705210DF5D1630DF5C962084602F0BB
:1025C00095FA00225CA174E71F2002F077FA0DF55E
:1025D000D2639AF8002059A1E4E70000D402002059
:1025E000D02D0108CDBCC6AC256420524138383707
:1025F00035202020202C20CFD4CABECAB1BCE43A5A
:10260000202534646D730000A8030020A603002079
:10261000CDBCC6AC2564204E4F5220464C41534899
:102620002C20CFD4CABECAB1BCE43A202534646D94
:102630007300000000F0276400604364CDBCC6ACAA
:102640002564205352414D2C20CFD4CABECAB1BC00
:10265000E43A202534646D7300000000313A000034
:10266000665F6D6F756E74CEC4BCFECFB5CDB3CA58
:10267000A7B0DC002F5069630000000025643A25F4
:10268000732F257300000000CDBCC6AC2564204E1E
:10269000414E4420464C4153482C20CFD4CABECA98
:1026A000B1BCE43A2025646D73000000CDBCC6AC1B
:1026B0002564204E414E4420464C4153482C20CEA8
:1026C000C4BCFEB4EDCEF33A2025646D7300000067
:1026D000303A000025643A5069632F2573000000EA
:1026E000CDBCC6AC2564205344BFA82C20CFD4CA8F
:1026F000BECAB1BCE43A2025646D7300CDBCC6AC43
:102700002564205344BFA8CEC4BCFEB4EDCEF33A3A
:10271000202573002F5049432F257300CDBCC6AC34
:1027200025642055C5CC2C20CFD4CABECAB1BCE488
:102730003A2025646D730000323A0000CDBCC6AC6F
:1027400025642055C5CCCEC4BCFEB4EDCEF33A25ED
:10275000730000000EB501208DF804004FF6FF70E5
:10276000ADF8060040F24D20ADF808000090084892
:102770000021ADF80A1003881422084602F0CEFCAE
:1027800001AB04A20221052002F0A8F90EBD000051
:10279000A8030020B6E0B9A6C4DCCAD5D2F4BBFABF
:1027A0002020000003F076BD03F09EBD10B54FF46D
:1027B0000054204600F01AF8002809D004F02AFC42
:1027C000204600F007F82046BDE8104000F008B8A9
:1027D00010BD00000149086070470000140401406A
:1027E000014908607047000014040140064A014690
:1027F00000201268044B0A4014331B680B4202D0BD
:10280000002A00D0012070470004014030B51A4969
:102810008379026853B30B6893430B600A1D1368F6
:102820000468A343136002790A44136804682343CD
:102830001360114A083213680468A3431360131D20
:102840001C680568AC431C604479102C05D02144F9
:102850000A68006802430A6030BD116804682143B9
:102860001160196800680143196030BD007908449F
:1028700001689143016030BD000401404FF02042E7
:1028800051B1102804D052F8800F40F0040009E044
:10289000106E40F0040009E00549102804D052F8F9
:1028A000800F084010607047106E08401066704737
:1028B000FBFF0F0030B5D0E901121143D0E903232B
:1028C0001A431143426941EA4221826941EA423195
:1028D000C26941F00804D2E9001341EA03211389D7
:1028E000127B1B0443EA0262036A1143D3E9002509
:1028F00042EA05221D891B7B2D0445EA03631A4326
:1029000003684FF02040102B04D040F8804F8160C6
:10291000C26030BD04668166C26630BD0549602272
:102920000A70054A80011070000A1070D0200870EB
:1029300000F004B8000001700000027010B54FF400
:10294000803400F0B3F902E000F0B0F9641E4028D2
:1029500002D0002CF8D101E0002C00D1802010BD65
:1029600030B501218FB0080206F018F801214FF4AC
:10297000F07006F02BF84DF6B300ADF834000324E8
:102980008DF8364018208DF837000DA9194800F051
:1029900029FD4FF4F060ADF834000DA9164800F0A1
:1029A00021FD4025ADF834508DF8364048208DF893
:1029B00037000DA9114800F015FD0120CDE90904EB
:1029C0000221CDE90B101020CDE9000100206104A7
:1029D000CDE90205CDE90410069009A807900890FA
:1029E0006846FFF767FF01211020FFF747FF0FB090
:1029F00030BD0000001401400018014000200140DB
:102A00002DE9F0470D46064600F0400001F0400178
:102A1000884203D02A4631461BA02DE0274F4FF0B5
:102A2000000887F80080264C84F8008084F8008035
:102A30002670300A2070352038704046401CC0B2E5
:102A40001428FBD3DFF87C904021484600F01BFDA2
:102A50000028F9D08520387084F8008084F8008040
:102A60002570280A207010203870FFF767FF402873
:102A700007D02A46314614A00BF0F8FB0120BDE830
:102A8000F0870020FBE700004572726F72203A2049
:102A900046534D435F4E414E445F50616765436FFF
:102AA00070794261636B4578287372633D25642CAD
:102AB000207461723D256429200D0A000000017018
:102AC00000000270002001404572726F723A204689
:102AD000534D435F4E414E445F50616765436F7095
:102AE000794261636B2825642C202564290D0A0036
:102AF0002DE9F84F0C46054600F0400001F040017A
:102B00000A9F1E469346884205D0224629462A48F7
:102B10000BF0ACFB4AE0DFF8A4804FF0000988F826
:102B20000090DFF89CA08AF800908AF800908AF85C
:102B30000050290A8AF80010352088F8000048461D
:102B4000401C80B21428FBD340211E4800F09BFC9F
:102B50000028F9D08523414688F800308AF8009093
:102B60008AF800908AF80040220A8AF8002088F843
:102B700000308AF80060320A8AF8002000204FF006
:102B8000E04204E01BF800301370401C80B2B842F1
:102B9000F8D310200870FFF7D1FE402809D0334643
:102BA00022462946084800970BF060FB0120BDE84B
:102BB000F88F0020FBE70000CC8E040800000170B5
:102BC0000000027000200140548F040810B5B3F5D6
:102BD000006F05D9194604A00BF048FB012010BD79
:102BE000BDE8104000F012B84572726F723A20468C
:102BF000534D435F4E414E445F526561644461747E
:102C00006128292025640D0A0000000070B51C46CB
:102C1000124B05460020187011480270120A02700B
:102C20000170090A0170302018700021491C89B216
:102C30001429FBD30B4E4021304600F024FC002821
:102C4000F9D000214FF0E04003E002786A54491CBB
:102C500089B2A142F9D3002070BD000000000170CC
:102C6000000002700020014010B5402B05D9194624
:102C700005A00BF0FBFA012010BD02F50062BDE8D3
:102C8000104092B2FFF7C2BF4572726F723A20468F
:102C9000534D435F4E414E445F52656164537061D2
:102CA000726528292025640D0A000000064A0020CC
:102CB0007021117009060978CA0701D001207047F8
:102CC0004906FCD54020704700000170054910B549
:102CD000FF200870FFF732FE402801D0012010BD10
:102CE000002010BD0000017010B5B3F5006F05D9CC
:102CF000194604A00BF0BAFA012010BDBDE810403F
:102D000000F012B84572726F723A2046534D435F1D
:102D10004E414E445F57726974654461746128295D
:102D20002025640D0A0000002DE9F0410D462349DD
:102D3000074680201E461446087021480270120A79
:102D4000027005702A0A02700020401C80B214280C
:102D5000FBD300204FF0E04203E03B5C1370401CCB
:102D600080B2B042F9D3102008700020401C80B21D
:102D70001428FBD3DFF84C804021404600F083FB51
:102D80000028F9D0FFF7DAFD4028334622462946CD
:102D900001D00DA00DE01B48FFF738FF3246394641
:102DA0001848FDF71AFA002806D03346224629466D
:102DB00015A00BF05BFA0120BDE8F0810000017066
:102DC00000000270002001404572726F72323A209A
:102DD00046534D435F4E414E445F57726974655090
:102DE00061676528706167653D25642C20616464B6
:102DF000723D25642C20636F756E743D2564290D2A
:102E00000A000000B61100204572726F72313A203C
:102E100046534D435F4E414E445F5772697465504F
:102E200061676528706167653D25642C2061646475
:102E3000723D25642C20636F756E743D2564290DE9
:102E40000A00000010B5402B05D9194605A00BF06B
:102E50000DFA012010BD02F50062BDE8104092B2EB
:102E6000FFF762BF4572726F723A2046534D435F5F
:102E70004E414E445F5772697465537061726528A4
:102E8000292025640D0A00008000A0F1C04000291F
:102E9000016802D041F0010101E0024A11400160E5
:102EA00070470000FEFF0F0010B5D0E9011211437A
:102EB000D0E903231A431143426911438269114344
:102EC000C2691143026A1143426A1143826A114383
:102ED000C26A1143026B114302689200A2F1C04220
:102EE00011608168082907D101688900A1F1C041FA
:102EF0000A6842F040020A60416BD1E9002342EACD
:102F000003128B688C891B0243EA04431A430B8A21
:102F100042EA03520B7D896942EA03620A4301686F
:102F20008900A1F1C0414A60C16AB1F5804F08D063
:102F300000686FF070418000A0F1C040C0F804113B
:102F400010BD816BD1E9002342EA03128B680C8A21
:102F50001B0243EA04531A430B7D896942EA036268
:102F600000680A438000A0F1C040C0F8042110BDF1
:102F700008B50121102005F029FD2020ADF8000042
:102F800004208DF803006946044800F02BFA044839
:102F9000002181700121417008BD00000010014036
:102FA0001036002003488068800601D40120704755
:102FB000002070470010014008B501226946A32097
:102FC00000F008F802499DF80000087008BD0000F4
:102FD0001036002070B515460E4604460EF06AFE07
:102FE00070200EF03FFE0EF08BFEE0B20EF03AFEC7
:102FF0000EF086FE0EF05EFE71200EF033FE0EF037
:103000007FFE00246D1E06E00EF008FE30550EF027
:10301000BFFD641CE4B2AC42F6DB0EF0FFFD3055A0
:103020000EF0EAFDBDE870400EF058BEF0B5484D18
:1030300089B06878002863D0A8780A2860D3002671
:10304000AE70FFF7AFFF434CF0B3667001226946E4
:103050000220FFF7BFFF9DF8000040075DD021224E
:1030600069460020FFF7B6FF9DF8020000F0070058
:10307000E870052801D90520E870EE700020EE46C2
:1030800000EB40010EEB41014B791A090F2A1AD2CD
:10309000EE7803F00F03761CEE70CF780E7907F010
:1030A0000F0C46EA0C2C05EB4006A6F804C0897903
:1030B00041EA0321F181BB092918401C4B770A76AC
:1030C00010F0FF00DCD000E01CE02E784FF4F0722E
:1030D000511E552E2BD0AE88EF8940F21F30B6F529
:1030E000487F00D30646974200D30F46207848B366
:1030F0003A4631465FF0020009F0E2FD6680A780A3
:1031000009B0F0BD20780128FAD16078401CC0B227
:1031100060700228F4D9667002E020780128EFD1AF
:103120002670A2886188032009F0CAFDE8E7EE89CD
:10313000AF88964200D30E46B7F5887FD6D340F2CB
:103140000F17D3E7012020703A463146D4E700003C
:10315000103600206804002002488178491C8170E4
:10316000704700001036002070B5F4B02DA230A1D9
:1031700068460BF08BF869466AA80EF017F8010054
:1031800002D02CA00BF072F828A826904FF4807083
:10319000314C27900020A07260720DF1890520A9A2
:1031A0006AA80EF0ECF8A8BB9DF8890090B32E2811
:1031B000F5D09DF888001028F1D02846FCF7F8FFDC
:1031C000C0B20528EBD320A90844032223A1801D07
:1031D000FDF703F80028E2D1607A214E00EB800170
:1031E00001EB8010316801EB80002946EC30FDF7DF
:1031F00001F8617A209801EB810202EB81113268BB
:1032000002EB8101C1F8FC00607A401CC0B2607220
:103210000A28C4D9607A002802D112A00BF026F83F
:1032200074B070BD313A2F4D7573696300000000B2
:10323000257300004F70656E20526F6F74204469D3
:10324000726563746F7279204572726F72202825DF
:1032500064290D0A00000000E80600204D503300EC
:10326000F8020020C3BBD3D0D4DAB8F9C4BFC2BCC3
:10327000CFC2D5D2B5BD204D503320CEC4BCFE0D3B
:103280000A0000002DE9FC5F0025484C00954FF432
:10329000806801954027C4F81080C4E902750E4685
:1032A0004FF0080B1021C4E900B1A946204606F0F2
:1032B000C9FE1020FEF714F900284CD13C48BA464C
:1032C0004F460089000420603720C4E9010AC4E9A0
:1032D0000398204606F0B6FE3720FEF701F90028D5
:1032E00039D104F114003349C0E9001B3021816059
:1032F0000221C0E903170121416106F027FE3320B6
:10330000C4F808A0C4E90070C4E90378204606F0B8
:1033100099FE3320FEF7E4F804001CD1264F4FF449
:10332000001AE94640F22A68786B10EA080F0AD1C1
:10333000504606F039FE0028F6D006F07DFE49F82A
:1033400025006D1CF0E7082006F02EFE28B10820AD
:1033500006F0E4FD0420BDE8FC9F022006F024FEF8
:1033600020B1022006F0DAFD0220F4E7202006F06A
:103370001BFE20B1202006F0D1FD0620EBE74FF424
:103380000075284606F010FE20B1284606F0C6FD5E
:103390000720E0E740F2FF5006F0C0FD009800BAB9
:1033A0007060019800BA30602046D4E7E81A002027
:1033B00088030020FFFF0F000080014010B58A073E
:1033C00021F003040649130F21440F228C689A4010
:1033D00094438C608A68984002438A6010BD000064
:1033E00000000140F0B5CA78002502F00F03D206B4
:1033F00001D58A7813430A784FF00F0E12F0FF0FB1
:103400004FF001021CD004680F8802FA05F637401D
:10341000B74211D14FEA850C0EFA0CF724EA0707E0
:1034200003FA0CF43C43CF78282F02D0482F02D067
:1034300002E0466100E006616D1C082DE4D30460E3
:103440000C88FF2C1ED944685FF0000606F10807BF
:1034500002FA07F50F882F40AF420FD14FEA860CD2
:103460000EFA0CF7BC4303FA0CF73C43CF78282F35
:1034700000D14561CF78482F00D10561761C082E18
:10348000E4D34460F0BD0246002092680A4200D0B6
:103490000120704741617047016170470AB10161C5
:1034A00070474161704700002DE9F041154F002041
:1034B000787000F069F8014613A00AF0D7FE184EA4
:1034C0006A250EF0F7FBBA200EF0CCFB0EF018FCCC
:1034D00006200EF0C7FB0EF013FCA2200EF0C2FB7C
:1034E0000EF00EFC0024305D0EF0BCFB0EF008FC6C
:1034F000641CE4B2AC42F6D30EF0F0FB012038704D
:10350000BDE8F08128070020475438313120566546
:103510007273696F6E203A20253034580D0A00000E
:103520000C03002070B515460E4604460EF0C2FB93
:10353000BA200EF097FB0EF0E3FB200A0EF092FB90
:103540000EF0DEFBE0B20EF08DFB0EF0D9FB0EF0BC
:10355000B1FBBB200EF086FB0EF0D2FB00246D1EEB
:1035600007E000BF0EF05AFB30550EF011FB641C53
:10357000E4B2AC42F6DB0EF051FB30550EF03CFBF2
:10358000BDE870400EF0AABB08B50222694640F2C1
:103590001770FFF7C7FF9DF801009DF8001000EBC2
:1035A000012080B208BD000070B54D4C8CB0207871
:1035B00000287DD0607814287AD300266670012216
:1035C000694640F22170FFF7ADFF9DF80000454DC0
:1035D000C00775D0212240F222700DF10101FFF7E2
:1035E000A1FF9DF80000A0709DF80100E0709DF81B
:1035F00003009DF8021000EB0120A0809DF805104B
:103600009DF80420A0F2DF1001EB02218EB2E680CB
:103610009DF8061021729DF808109DF80720404281
:1036200001EB022161819DF80A109DF8092001EB50
:103630000221A1819DF80B10A1739DF80D109DF83A
:103640000C2001EB022121829DF80F109DF80E2025
:1036500001EB022161829DF8101021759DF8181070
:103660009DF8112001EB0221E1829DF81A109DF8CE
:10367000192001EB022121839DF81B10A1769DF8F2
:103680001D109DF81C2001EB0221A1839DF81F1045
:103690009DF81E2001EB0221E1839DF8201084F8A3
:1036A000201084B22878A8B122463146022001E0D9
:1036B00004E005E009F004FB6E80AC800CB070BD46
:1036C00028780128FAD12E70AA886988032009F089
:1036D000F7FAF3E70120287022463146E7E70000B9
:1036E000280700200603002002484178491C417049
:1036F00070470000280700200549096889B201EBDE
:10370000C000044901EB4000008980B2704700000E
:10371000505C0040006000400549096889B201EB37
:10372000C000044901EB40008089C0F309007047E4
:10373000505C0040006000400449096889B201EB18
:10374000C000034931F8100080B27047505C00405F
:103750000060004008B1044870470449012009682E
:103760000882002070470000A004002038060020D6
:103770000A4810B50168001D0468001D006808189B
:103780000BD00822064901F0B7F80549204604226B
:10379000BDE81040103101F0AFB810BDE8F7FF1FD1
:1037A0006E0500207CB50EF085FA3C200EF05AFA2A
:1037B0000EF0A6FA03200EF055FA0EF0A1FA0EF064
:1037C00079FA3D200EF04EFA0EF09AFA00246D467A
:1037D0000EF024FA28550EF0DBF9641CE4B2062C36
:1037E000F6D30EF01BFA8DF806000EF005FA0EF077
:1037F00075FA9DF801009DF8001000EB012001B260
:10380000204801F2FF7501809DF803209DF80230E9
:1038100002EB032212B282809DF805309DF804402D
:1038200003EB04231BB243809DF80640847440F6EA
:10383000FF74A54209D2B0F90C50A94200DD818184
:10384000B0F90650A94200DAC18003F2FF71A1422B
:1038500009D2B0F90E108B4200DDC381B0F9081017
:103860008B4200DA038102F2FF71A14209D2B0F962
:1038700010108A4200DD0282B0F90A108A4200DA92
:1038800042817CBD4A070020064942F21072086856
:1038900080F4807008600020401C80B29042FBD30E
:1038A000F5E700000C0801402DE9F041304C314EA5
:1038B0004FF40025607B01280DD0022833D0002270
:1038C0006021304607F0D8FE3046BDE8F0410022C6
:1038D000712107F0D1BE0121304607F0B1FE012869
:1038E00019D1304607F0D4FED4E9011221F81200B4
:1038F000A068401CA060A8420DD300226021304681
:10390000A56007F0B9FE00227121304607F0B4FE31
:1039100016200BF0B5FF7121304607F098FE012804
:1039200023D100211CE07121304607F090FE0128D0
:103930001BD1D4E9011031F81070401CA060A842DE
:103940000DD3002260213046A56007F095FE0022CD
:103950007121304607F090FE16200BF091FF39469A
:103960003046BDE8F04107F095BEBDE8F0810000AB
:10397000500600200038004070B5114D114E04462D
:1039800000212B883288084600F0CAF94FF0D84150
:103990002C20088030882A885043C21700EB5270D0
:1039A000C210002008E04C804C804C804C804C8041
:1039B0004C804C804C80401C9042F4D370BD000081
:1039C000A8030020A60300202DE9F0471F46164655
:1039D000884681460025089C00F0A2F97E4306E057
:1039E00034F8022B4146484600F046F96D1CAE42C1
:1039F000F6D805480021038804480288BDE8F0474E
:103A0000084600F08DB90000A8030020A60300209E
:103A10002DE9FF5F804603200F46A0EB42060025FC
:103A2000144653E007EB040B08EB05091FFA8BF172
:103A30001FFA89F0039A00F01FF9A7EB040A1FFA96
:103A40008AF11FFA89F0039A00F016F9A8EB05092C
:103A50001FFA8BF11FFA89F0039A00F00DF91FFA93
:103A60008AF11FFA89F0039A00F006F907EB050BBB
:103A700008EB04091FFA8BF11FFA89F0039A00F092
:103A8000FBF8A7EB050A1FFA8AF11FFA89F0039ADF
:103A900000F0F2F8A8EB04091FFA8BF11FFA89F085
:103AA000039A00F0E9F81FFA8AF11FFA89F0039AE5
:103AB00000F0E2F8002E03DA06EB8506B61D04E0FE
:103AC000281B06EB8006641E0A366D1CA542A9D988
:103AD000BDE8FF9F2DE9F84F16461F460D460446E8
:103AE0000A9A00F0C9F8B44201D1BD4241D04FF06A
:103AF0000008A64201D3311B00E0A11BAF4201D355
:103B0000781B00E0E81B81420ADA22462C46154663
:103B100032463E4617468AB201464FF0010810462B
:103B20004FF0FF32A64201D9012300E013469A4626
:103B3000AF4200D901224FEA4009401A40009346A3
:103B4000A9EB0107009012E0002F01DA4F4402E0D8
:103B500000985D440744B8F1000F02D0A1B2A8B2AA
:103B600001E0A9B2A0B20A9A00F086F85444B44227
:103B7000EAD1BDE8F88F2DE9F843C5181446089E30
:103B80006D1E88460746AAB20B460096FFF7A2FFB5
:103B900008EB0409A9F10104A3B2AAB2A1B2384604
:103BA0000096FFF797FF3A46A3B2414610460096AB
:103BB000FFF790FF1FFA89F3AAB2A8B24146009618
:103BC000FFF788FFBDE8F88370B51D461446049ED4
:103BD00000F0A6F84FF0D8412C20088000206C435C
:103BE00001E04E80401C8442FBD870BD10B500F04F
:103BF0005DF84FF0D8402E210180418842884188ED
:103C000040886FF30A02800A42EA401040EAD1205D
:103C100010BD000010B500F039F8A0F5A901663913
:103C200025D100F0D1FD1249002008700121122297
:103C3000084600F021F801210846FFF7D7FF0D4C98
:103C4000012134222080084600F016F801210846A0
:103C5000FFF7CCFF208001215622084600F00CF827
:103C600001210846FFF7C2FF49F28840208010BDBD
:103C700044040020A403002010B5144600F016F8F8
:103C80004FF0D8402C210180448010BD4FF0D84027
:103C900004210180418841880A0641884088C9B2D0
:103CA000120AC0B202EB01210844704710B54FF070
:103CB000D8422A231380030A5380C4B2548053800D
:103CC000C0B250802B201080080A5080CBB25380A5
:103CD0005080C8B2508010BD30B5362251060A80DF
:103CE0000D4B0E4D4FF4A0724FF4F07450B10128FB
:103CF0000AD002280DD0032803D1082048801C8058
:103D00002A8030BDA82000E0682048801A802C80DE
:103D100030BDC820F2E70000A6030020A803002061
:103D200030B54FF0D8442A252580050A6580C5B2F4
:103D300065801844401EC0F307236380C0B26080D2
:103D40002B202080080A6080C8B260808818401E3E
:103D5000C0F307216180C0B2608030BD2DE9F04121
:103D60003F4C02273F49627900251346A0F10B061C
:103D700012F1800294F802C0BCF1000F2DD0BCF10A
:103D8000010F3DD0BCF1020F4CD0BCF1030F2DD17F
:103D9000B1F804C084441FFA8CF891F800C04FEACF
:103DA0005C0C81F800C0A8F15D0CBCF1270F07D3B3
:103DB000A8F1CE0CBCF1270F3AD2087880300870F9
:103DC0004878401CC0B24870082833D0102834D03E
:103DD000182835D0202838D035E00122A0F2BD20A7
:103DE000B0F5C77F04D8A2700D704D70BDE8F081AA
:103DF000887818B10128F9D18F70F7E78A70F5E754
:103E0000A0F59D71B1F58F7F1DD39738632825D21A
:103E1000E0790A2803D3D0B20BF032FD1EE0401C3B
:103E2000E0711BE0592E03D20322A2708880DDE7E7
:103E3000A5709FE70878E07004E00878207101E041
:103E4000087860710D70A770D0E70878A0711844E9
:103E5000FF2803D1D0B20BF013FDE571A570C5E7C3
:103E6000B03400205804002070B588B00121022031
:103E700004F0A0FD0121082004F0A8FD03208DF826
:103E80001E0004208DF81F000125ADF81C5007A965
:103E90002348FFF7A7FA1D208DF8180000248DF89D
:103EA00019408DF81A508DF81B5006A802F0B2FE8A
:103EB00040F2CF204FF6FF71ADF80410ADF80000CE
:103EC000184EADF80640ADF802408DF8084069463E
:103ED000304608F063FC0820ADF80C000220ADF875
:103EE0000E00ADF81050ADF81240ADF8144003A923
:103EF000304608F069FA0121304608F040FA012204
:103F00000821304608F0F6FA01221146304608F042
:103F1000F1FA054804808470057208B070BD000095
:103F2000000C014000040040B034002010B5064CE5
:103F30000021204608F023FA20460022BDE8104068
:103F4000082108F0D7BA00000004004010B5134C57
:103F50002068017A022904D0042902D0062905D05C
:103F600015E0FDF739FD2068007A11E04178052958
:103F700009D10178490606D1C07807F0C9FC084884
:103F80000068006A8047074800688068804708200A
:103F900021680872BDE8104003F00EBB380600200F
:103FA000400600203C060020F0B5484801224EF6AD
:103FB0005B730068002149F699140276838341837C
:103FC000C183027084804180C180027283811F237B
:103FD0004381C181027484824182C182052242846C
:103FE000082282843A4A0B253FA6148841A7A4F1EF
:103FF0001202C284374A1388A3F10A02028536A24C
:10400000026300F11802C262C5861C220287C187C2
:10401000C0E91006A0F85E503026A0F86060A0F855
:104020006610C0E91A07A0F886504427A0F88870E7
:10403000A0F88E100FF2C80CC0E9240CA0F8AE5006
:104040004FF0580CA0F8B0C0A0F8B6102FA5C0E9EA
:104050002E056525A0F84A50A0F84C20A0F8521073
:104060002DA2826500F108024265A0F87250A0F806
:104070007460A0F87A1029A6C0E91F26A0F89A500B
:10408000A0F89C70A0F8A21024A6C0E92926A0F8E8
:10409000C250A0F8C4C0A0F8CA1021A5C0E93325B9
:1040A000453BA0F8D6302E3CA0F8D8402022A0F8FE
:1040B000DA203C22A0F8DC201AA2C0F8E42000F1AB
:1040C000100240F8E02F0172F0BD0000F80200205D
:1040D000A6030020A80300204D5033C4A3BFE9B2BB
:1040E000E2CAD4B3CCD0F200D0BEC6ACD0CDBAC5F3
:1040F000203A0000CAE4B3F6D2F4C1BF203A00006F
:10410000B2A5B7C5BDF8B6C8203A2000CEC4BCFEE3
:10411000C3FB2020203A20002020000020000000C7
:104120002D2D2D00B7B5BBD800000000124810B5EA
:10413000012101701F2181804FF6FF7141800F49DD
:104140000022C28005234B806E248C800C4C4A8157
:10415000C1E90304283996244B808C80084C4A819D
:10416000C1E9030414314B80AA238B804A81224683
:10417000C1E9030210BD0000D6020020D4060020D1
:10418000B4DB00082DE9F04F85B00121052004F0D3
:104190001DFC0121880304F019FC4FF40070ADF8F8
:1041A000000018278DF8037003268DF80260694619
:1041B0006248FFF717F94FF4806AADF800A00425B4
:1041C0008DF8035069465D48FFF70CF90024DFF8CD
:1041D00070B14FF4E139ADF80840ADF80C404FF044
:1041E0000C08CDF80490ADF80A40ADF81040ADF8D9
:1041F0000E8001A9584609F051FD012240F22551D7
:10420000584609F033FD0121584609F006FD4021CA
:10421000584609F0FFFC0121052004F0D7FB0121DD
:10422000480404F0C7FBADF800508DF803708DF81A
:10423000026069464148FFF7D5F80820ADF8000054
:104240008DF8035069463D48FFF7CCF869463B4876
:10425000FFF7C8F8CDF80490DFF8E890ADF8084013
:10426000ADF80C40ADF80A40ADF81040ADF80E8046
:1042700001A9484609F012FD012240F225514846A5
:1042800009F0F4FC0121484609F0C7FC40214846EA
:1042900009F0C0FC0121082004F098FB10208DF8E3
:1042A0000300DFF8A4908DF80260ADF80050694675
:1042B0004846FFF797F80121092004F087FB012108
:1042C000880404F077FBADF800A08DF803708DF83A
:1042D000026069464846FFF785F86802ADF80000BD
:1042E0008DF8035069464846FFF77CF86946484612
:1042F000FFF778F8ADF80840ADF80A40ADF80C408B
:10430000ADF810404FF41650104C0190ADF80E80EF
:1043100001A9204609F0C2FC012240F225512046A5
:1043200009F0A4FC0121204609F077FC4021204639
:1043300009F070FC05B0BDE8F08F000000080140F6
:104340000038014000440040000C0140004800409B
:104350002DE9F05F0021084607F05AF94FF4807606
:104360003146012007F054F93146022007F050F998
:1043700041F21801032007F04BF940F6080108202C
:1043800007F046F90121092007F042F910210B201E
:1043900007F03EF900210C2007F03AF900210F2028
:1043A00007F036F90121072007F032F91321102018
:1043B00007F02EF940F201542146112007F028F9A8
:1043C0004FF440752946122007F022F940F21E21D1
:1043D000202007F01DF940F20221212007F018F9F2
:1043E000F101902007F014F941F2B071304607F066
:1043F0000FF9761C40F24711304607F009F940F2F8
:104400003511701C07F004F94FF4E061B01C07F09F
:10441000FFF8B71D0021384607F0FAF801214FF4E4
:10442000887007F0F5F84FF404780021404607F053
:10443000EFF840F21129EF21484607F0E9F840F281
:10444000122A0021504607F0E3F840F28F1B59462C
:1044500040F2132007F0DCF80021601007F0D8F8D4
:10446000042140F2812007F0D3F8002140F282209D
:1044700007F0CEF83146284607F0CAF840F62C314E
:10448000681C07F0C5F841F23001A81C07F0C0F81D
:1044900043F21001E81C07F0BBF842F60B41281D5F
:1044A00007F0B6F83146681D07F0B2F840F607018C
:1044B000A81D07F0ADF84FF4E161E81D07F0A8F87A
:1044C00039464FF4427007F0A3F8311D40F209302D
:1044D00007F09EF840F6047140F20A3007F098F8B1
:1044E0004FF4706140F20B3007F092F80F214FF457
:1044F000437007F08DF840F20F4140F20D3007F0A5
:1045000087F8294640F20E3007F082F840F2017138
:1045100040F20F3007F07CF84FF454514FF48060B4
:1045200007F076F8012140F2014007F071F8002110
:10453000B00007F06DF80021601E07F069F8002157
:10454000204607F065F80021601C07F061F80021A3
:10455000A01C07F05DF80021E01C07F059F80021CD
:10456000201D07F055F80021680007F051F80021E0
:1045700040F2066007F04CF800214FF4DE6007F0CF
:1045800047F84FF4FE6445F22041204607F040F81A
:10459000002140F2DE7007F03BF8DF21A01C07F09D
:1045A00037F84FF40161E01C07F032F87721201D45
:1045B00007F02EF82121601D07F02AF8002120467F
:1045C00007F026F840F27311072007F021F80021C8
:1045D000404607F01DF8EF21484607F019F8002182
:1045E000504607F015F85946BDE8F05F40F2132039
:1045F00007F00EB870B50021084607F009F8002151
:10460000084607F005F80021084607F001F80021E8
:10461000084606F0FDFF06F003FE40F608010820FC
:1046200006F0F6FF1021084606F0F2FF4FF4C441F1
:104630004FF4806006F0ECFF40F606414FF4407006
:1046400006F0E6FF49F60F5140F2013006F0E0FFB8
:1046500040F6053140F2023006F0DAFF41F2172150
:1046600040F2033006F0D4FF43F233314FF441708F
:1046700006F0CEFF41F2127140F2053006F0C8FF9D
:1046800049F20B5140F2063006F0C2FF40F60D71C0
:1046900040F2073006F0BCFF40F20C614FF442706C
:1046A00006F0B6FF002140F2093006F0B1FF40F2FB
:1046B0000221112006F0ACFF40F201142146122025
:1046C00006F0A6FF0121132006F0A2FF012107201A
:1046D00006F09EFF651E4FF4E661284606F098FF3F
:1046E00040F23721204606F093FF4FF42C51A01CD6
:1046F00006F08EFFA9014FF4207006F089FF48F202
:10470000B011601C06F084FF06F08AFD29460120E6
:1047100006F07EFF2946022006F07AFF41F21801DA
:10472000032006F075FF0121092006F071FF00212A
:104730000C2006F06DFFE901902006F069FF0021D2
:104740000F2006F065FF00214FF4047006F060FFB3
:10475000EF2140F2112006F05BFF002140F2122011
:1047600006F056FF40F28F1140F2132006F050FF82
:1047700000214FF4A06006F04BFF002140F20150F1
:1047800006F046FF5F2140F2025006F041FF012192
:1047900040F2014006F03CFF0021A00006F038FF87
:1047A00006F03EFD2946072006F032FF06F038FDF0
:1047B0000021680006F02CFFBDE87040002140F2A7
:1047C000012006F025BF000010B54FF0D844F720B7
:1047D0002080A9206080512060802C206080822071
:1047E0006080C02020801120608009206080C1206E
:1047F000208041206080C5202080002060800A2029
:10480000608080206080B1202080B02060801120F6
:104810006080B420208002206080B62020800220AA
:10482000608022206080B7202080C6206080BE206B
:1048300020800020608004206080E920208000200B
:104840006080FFF749FA3A20208055206080E02000
:104850002080002060800720608010206080092078
:104860006080172060800B2060804120608089205C
:1048700060804B2060800A2060800C2060800E20C9
:104880006080182060801B2060800F206080E12005
:10489000208000206080172060801A206080042023
:1048A00060800E206080062060802F206080452080
:1048B000608043206080022060800A2060800920A0
:1048C000608032206080362060800F206080112060
:1048D000208078200AF0BAF929202080044800219D
:1048E000038804480288BDE810400846FFF718BA5C
:1048F000A8030020A6030020F0B500230A243025D9
:1049000037261F4611E000BFB4EB107F02D905EB3C
:10491000107C01E006EB107C01F813C001EB430CA6
:1049200000015B1C8CF80170DBB29342ECD3F0BD4C
:1049300007488068800409D406480068C00705D18C
:1049400005488068C00501D50120704700207047E8
:10495000001001400808014000200140074880681D
:10496000800409D506480068C00705D0054880685E
:10497000C00501D40120704700207047001001409D
:10498000080801400020014007488068800409D5DC
:1049900006480068C00705D005488068C00501D5F5
:1049A00001207047002070470010014008080140B6
:1049B0000020014007488068800409D50648006847
:1049C000C00705D105488068C00501D401207047A3
:1049D00000207047001001400808014000200140FD
:1049E00003488068000401D401207047002070470C
:1049F0000020014003480068000701D401207047EF
:104A0000002070470814014003488068400401D426
:104A10000120704700207047002001400348806853
:104A2000800401D40120704700207047002001401D
:104A300003488068000601D40120704700207047B9
:104A40000020014007488068800409D406480068B7
:104A5000C00705D005488068C00501D50120704712
:104A6000002070470010014008080140002001406C
:104A700081070CD16421B0FBF1F201FB120141B9B5
:104A80004FF4C871B0FBF1F201FB120008B1002035
:104A90007047012070470000074B40EA004041EAA0
:104AA000014118401940091A514300EB51101840B8
:104AB00040EA104080B270471FF8E0070649498875
:104AC000752907D0A1F51442883A01D006F08ABBB7
:104AD000FEF752BF03F020B9A20300201CB500244A
:104AE0000094019400F002F81CBD00002DE9FF4F76
:104AF000A3B00025DDF8C0A08346219518781C4698
:104B00002F46A946072869D2DFE800F004070A0DFE
:104B1000102123000C273D460AE010273D4607E000
:104B200018273D4604E020273D4601E04FF00109EB
:104B30001946259800F09CFB06464FF00008B24548
:104B400026D93198022807D0012809D020E0012079
:104B500000E002202190E9E7AAEB060080B205E020
:104B6000AAEB060000EBD070C0F34F005FEA00082C
:104B70000ED0204600F044FBA18802460091434637
:104B80005846249900F0CAFA0BEB08001FFA80FB84
:104B9000B24510D9204600F033FB0246A088AAEBAC
:104BA00006010090A1EB080083B20BEB060080B277
:104BB000249900F0B3FAB9F1000F12D0608803F025
:104BC000F4FDA08803F014FDA2790021219803F0E0
:104BD000D5FDDDE92412584603F062F927B0BDE89F
:104BE000F08F259864E0802819D22278002601AB46
:104BF0003146072A0AD2DFE802F0040707070F0F41
:104C00000F0018262C4901E02C492026720800FBD1
:104C100002111846FBF7A8FA4FEA55090AE0259950
:104C2000491C259109780029D8D0227801AB09F0D8
:104C3000DBFAA9462498009000202DE04FEA4900B5
:104C4000DA46002621901EE0219806F00702B0FB0C
:104C5000F5F101A801FB08F100EBD600095C80200A
:104C6000D040014201D0628804E0A288A2F5194038
:104C7000993803D05046009900F0A4FB0AF10100D6
:104C80001FFA80FA761C4E45DED30098401C80B295
:104C9000009008F1010080B28046B842CED3E2888D
:104CA0000BEB090010441FFA80FB2598401C25904F
:104CB0000078002897D191E7BC360108B03C010884
:104CC000F8B50A4D069C6D88752D0AD0A5F51446D9
:104CD000883E009402D006F0ABFAF8BDFEF774FEF1
:104CE000F8BD009403F018F9F8BD0000A2030020FD
:104CF0002DE9FF410446C06801788DF8081040880E
:104D0000ADF80A00E0688088ADF80C00E068C08863
:104D1000ADF80E00207D012858D04CF6596000BF38
:104D2000ADF80C00102000902389E288A1886088EB
:104D300000F0B4F94FF6FF7000902089801E83B216
:104D4000E088801E82B2A088401C81B26088401C2E
:104D500080B200F0A3F949F2B24000902089001F10
:104D600083B2E088001F82B2A088801C81B2608874
:104D7000801C80B200F092F902A800F041FA0346CC
:104D8000A088E288618800EB5205A5EB53039DB231
:104D9000BDF80C300093C91C2389C01C87B28EB2A9
:104DA0009B1F921F88B29BB292B2394600F0B6F9AF
:104DB00020890121801F80B2CDE9000102AB294684
:104DC00030462269FFF792FEBDE8FF8147F6FF708B
:104DD000A6E700007CB54588102600960446818829
:104DE00018231A46284600F059F90096A088162381
:104DF000401C81B2681C80B21A4600F04FF94CF694
:104E000059600090A088AD1C801C81B21423A8B208
:104E10001A4600F083F96088A188D4E903321A3079
:104E2000091D80B289B2FFF759FE207D002817D0F6
:104E300001208DF8000049F69910ADF804004FF4F8
:104E40007840ADF802000020ADF806006088A18827
:104E5000C01CC91C89B280B26B4602A2FFF73EFE9D
:104E60007CBD0000A1CC000030B4084C6488752CD7
:104E700009D0A4F51445883D02D030BC06F0FCB939
:104E800030BCFEF7C5BD30BC03F068B8A2030020FB
:104E900038B504464FF6FF7000902089E288401E26
:104EA00083B2A088401D81B26088401C80B200F0AF
:104EB000F5F84AF6535000902089E288401E83B2EC
:104EC000A088001D81B2608800F0E8F86088D4E90D
:104ED0000332A18801B00930BDE8304080B2FFF74D
:104EE000FDBD2DE9F74F0546C468C08882B0401E5D
:104EF00089460FFA80F836346BE0002662E014F839
:104F000001BB14F8010B009014F802AB14F8017CFB
:104F1000EFB3FF2F3FD0A98801EB080081B268886A
:104F2000304480B200F094F9F82101EA1023FC210A
:104F300001EAD002C0064FEA106E0AFB07F1FF201B
:104F4000B1FBF0FCC7F1FF014B43B3FBF0F363444B
:104F5000DDF800C04A430CFB07FCBCFBF0FCB2FBD5
:104F6000F0F262440BFB07FCBCFBF0F701FB0EF117
:104F7000B1FBF0F0C3F3C4013844C902C2F38502A7
:104F8000C0B241EA421141EAD000049900E017E0C2
:104F9000012947D009E04FEADA00C10200988008F1
:104FA00041EA401141EADB00EFE7AA8802EB080181
:104FB0006A8889B2324493B20246184600F002FA77
:104FC000761C36B22889B04299DCA8F101000FFAAC
:104FD00080F8B8F1000F90DA05F110000446FBF7F5
:104FE000E7F80004000C28D099F800204FF6FF7174
:104FF000002AB9F8062010441AD001EAC0006988D6
:105000002A894B4601EB5201A1EB5000A988EA889E
:1050100005B011442246BDE8F04F891C89B280B228
:10502000FFF75CBD0A224FF6E071FFF735FDBCE7E4
:1050300000EB400001EA4000E1E705B0BDE8F08F79
:1050400030B50446C1B00069FBF7B2F885B260899B
:10505000A84208D2D4E90332A1886088FFF73EFD58
:10506000658141B030BD0020694604E02269125CD0
:105070000A54401C80B2A842F8D32022638983429C
:1050800003D90A54401C80B2F8E700220A54A188D0
:1050900060886A46E368FFF721FDE2E7F8B50A4D4C
:1050A000069C6D88752D0BD0A5F51446883E00949E
:1050B00003D0D2B206F0B5F9F8BDFEF75CFDF8BD3D
:1050C000009402F083FFF8BDA203002000B597B062
:1050D00001200F9000200221CDE91001149006213B
:1050E0001590CDE9001012901021CDE90201139026
:1050F00004900590069009020790CDE908010A90F6
:105100000B900C900FA80D900E906846FDF7CCFE0A
:1051100001210620FDF7B8FE17B000BD2DE9F843C8
:1051200007461548DDF82080154640880E4675284C
:1051300010D0A0F51441883904D00024F818A0F14B
:10514000010916E031463846CDF80080FEF73CFDF7
:10515000BDE8F8833846CDF8008002F083FFF7E71A
:10516000301981B21FFA89F24346384606F0E6F854
:10517000641CAC42F4D3EBE7A2030020114945F2D2
:1051800020434A88D11A9A4214D007DC752A13D0DA
:105190006FF48041CA420BD10BA110E06839B1F520
:1051A00080410BD06FF40252D14201D109A106E037
:1051B0000AA104E00BA102E00DA100E00EA1FBF7A3
:1051C00019B80000A20300204F544D343030314153
:1051D000000000005236313530395600556E6B6E86
:1051E0006F770000535046443534323041000000A0
:1051F0005241383837350000494C49393438380085
:10520000014610200978072906D2DFE801F00405DD
:105210000608050608000C2070471820704720205B
:105220007047014610200978072906D2DFE801F00F
:1052300004050608050608000C2070471820704772
:10524000202070470148808870470000A20300209A
:10525000064A5288752A07D0A2F51443883B01D02C
:1052600006F008B9FEF7C2BC02F04CBFA203002052
:1052700030B503460D4600240846FFF7D2FF24E070
:10528000802819D22978072914D2DFE801F00D13FC
:105290000F11040608000F4902E00F4900E00F4912
:1052A000084410F8200C0DE006200BE00C2009E06B
:1052B000102007E0082005E013F8010F40B1284650
:1052C000FFF7AFFF204484B25B1C18780028D7D1C9
:1052D000204630BDB04C0108104D0108704D01084A
:1052E0000148C08870470000A203002038B50121A2
:1052F000080203F053FB012140F2E11003F066FBCA
:105300004CF23370ADF8000003208DF80200182035
:105310008DF8030069462648FEF764F84FF698704A
:10532000ADF8000069462348FEF75CF80120ADF8AF
:10533000000069462048FEF755F84FF48050ADF85C
:10534000000069461D48FEF74DF8FFF7BFFE142028
:1053500009F07CFCFEF79AFC194CA0F5A90166390E
:105360001CD006F00DF9A0F5A84120391CD0A0F5FD
:105370003541093918D0A0F5AA41203914D075203B
:10538000608002F01DFF002000F03CF80020FFF7D5
:1053900095FBBDE83840C82000F028B849F28840A5
:1053A0006080FEF737FCEEE706F080F8EBE70000E0
:1053B0000014014000180140001C01400020014081
:1053C000A2030020084B30B45B88752B09D0A3F5ED
:1053D0001444883C02D030BC06F0C4B830BCFEF7A0
:1053E0004BBC30BC03F03AB8A2030020044908705B
:1053F0004988752901D000F011B803F00BB90000FD
:10540000A2030020044948704988752901D0FEF79D
:1054100063BC03F03FB90000A203002042F2107108
:105420004843FF211CB5B0FBF1F06421CDE9001029
:105430000323034A022103480AF02AFB1CBD000093
:1054400000340140000C01407047704770B54C2299
:1054500000211E480BF07EFC1C484FF4827102684C
:105460008A4231D040F8281BC82100F8241CC024EF
:105470000470A8254570012181705522C270FF2259
:105480000271427182710023C3710472457281728C
:10549000C1720473457381735626C67302744274D5
:1054A0008274C374047545758175C175037643763E
:1054B0008376C3761E22027741774FF4165101623C
:1054C000BDE8704006F020B970BD00006006002005
:1054D0002DE9F041134E002436F81470641C36F8A0
:1054E0001450641C280413D536F81480C5F30E0537
:1054F000641C03E0F8B241460DF0A4F96D1EADB294
:10550000F8D208E036F81410F8B2641C0DF09AF9DD
:105510006D1EADB2F6D2B4F5177FDDD9BDE8F0410E
:105520000DF07CB9803101082DE9F041DFF8D88019
:1055300096B008F1100500244FF40077A5F1080695
:1055400010B101285CD141E004F032FF30B1F42306
:105550002EA2214635A008F089FE51E0684604F0ED
:10556000D7FDBDF85400000405F09AFA9DF8181014
:105570009DF85600891C02281CD09DF808200120A7
:105580009040C21700EBD250049A4012521C8A403D
:10559000400882402A603760BDF85400000405F0DE
:1055A0007FFA4FF4006004F079FD40B1012016B09D
:1055B000BDE8F0810498401C80022860EBE7286871
:1055C00031684843C8F800000020F0E701F068F8AF
:1055D0002149884208D02149884205D02049884283
:1055E00002D02049884208D100F07EFF400A68605E
:1055F00041027760C8F8041003E01BA008F036FEF3
:1056000001242046D3E70000A40400202E2E5C2EA7
:105610002E5C557365725C7573625F6D6173735C4C
:105620006D6173735F6D616C2E63000053445F495D
:105630006E69742829206661696C202825642920F8
:105640003A2066696C65202573206F6E206C696E48
:10565000652025640D0A00001D80F1AD1580F1EC78
:105660009500F1EC1D00F1AD4D414C5F4765745361
:105670007461747573284D4153535F4E414E4429F4
:10568000204661696C0D0A002DE9FC411E46174653
:105690000D46002410B1012824D117E00120CDE9E6
:1056A00000600A460023384605F098F905F046FAEE
:1056B0004FEA000404F06FFE0028FBD194B12346AA
:1056C0003246294609A008F0D1FD0AE01A463946BB
:1056D000284600F09FFF28B1324629460DA008F069
:1056E000C5FD01242046BDE8FC81000053445F5203
:1056F000656164426C6F636B282C20307825582CD0
:10570000203078255829204661696C282564292095
:105710000D0A00004E414E445F52656164283078A6
:1057200025582C202C3078255829204661696C0D8D
:105730000A0000002DE9FC411E4617460D460024D4
:1057400010B1012824D117E00120CDE900600A46FC
:105750000023384605F0B0FA05F022FA4FEA0004BB
:1057600004F019FE0028FBD194B1234632462946A5
:1057700009A008F07BFD0AE01A463946284600F0E9
:10578000F9FF28B1324629460DA008F06FFD01242B
:105790002046BDE8FC81000053445F577269746580
:1057A000426C6F636B282C20307825582C20307881
:1057B000255829204661696C28256429200D0A0096
:1057C0004E414E445F577269746528307825582CD5
:1057D000202C3078255829204661696C0D0A00007C
:1057E0000D4900B509680A7802F07F02212A08D124
:1057F000FE2806D1488820B9888810B9C8880128B1
:1058000001D0022000BD0548886100204882FDF7D4
:10581000A1FF002000BD0000380600205537000819
:10582000014906F075BA0000CC050020014906F0D8
:105830006FBA0000C405002005490968C978052928
:1058400001D900207047034A02EBC10106F060BA9B
:10585000380600200406002009B9002800D00220E4
:10586000704700000F4910B509680A7802F07F02FE
:10587000212A07D1FF2805D1488818B9888808B996
:10588000C88808B1022010BD0120FBF705FE0220E8
:10589000FBF7EEFD05490448086005490020087043
:1058A00010BD00003806002055534243743E0020CE
:1058B0006005002070B531480025324985723048B6
:1058C0000968C0794872284606F01AF84FF400714A
:1058D000002006F0D1F82021002006F0B5F81821AC
:1058E000002006F039F8284C002014F82C1F06F090
:1058F00043F85821002006F089F80020FBF7E0FD6E
:10590000002006F071F80021012006F0B5F898217A
:10591000012006F07BF82021012006F095F80021F7
:10592000012006F049F80021022006F0A5F8D82150
:10593000022006F011F82178022006F01DF84FF43D
:105940004051022006F038F80021022006F07CF8D1
:105950002178002006F010F8002006F045F800201D
:1059600005F0D6FF0949012008600A490848086087
:1059700009480570BDE8704008F02ABAD43E0020FE
:10598000BEDE010838060020D40500202C060020C9
:1059900055534243743E0020600500207047704715
:1059A00010B5FDF7E5FE054800240068847201F09B
:1059B00025FE08F00FFA0248046010BD38060020EA
:1059C0002C06002070B50A4C05460A49D4F8080197
:1059D000094AB1FBF0F104200AF042FA94F8800081
:1059E000802804D2255414F8800F401C207070BD0C
:1059F00018080020C00E1602FD59000801490120B8
:105A000008707047760300202DE9F0412649087B95
:105A1000002847D025484A7B8023841545154FF43C
:105A20008056082A1ED2DFE802F004070C0F121677
:105A30001A314661036101E0466103E004610561DA
:105A400010E006614361F9E70661436101E0066128
:105A500003614461F3E706610361446101E00661AB
:105A600015E045610B780720A3B1CAB1521E4A73F5
:105A70008868002816D0401E886013D101210C4888
:105A800006F07AFCBDE8F04100F014B8466103610D
:105A90000461E6E7521CD0B248730728E8D9002019
:105AA0004873E5E7BDE8F081BC34002000100140F8
:105AB00000100040002310B51A46194603480AF0AA
:105AC000A9F803490020087310BD00000010004031
:105AD000BC34002010B50CF09DFD0CF074FE0CF0F1
